:020000040000FA
:040000008031132810
:100008007E1480310B1D09280A2811287A08013E20
:10001800FA0000307B3DFB000B117E100900803197
:1000280015288031B5208031FA008031B620803122
:10003800FB0070308400003085000A308031AF202A
:100048008031203084000030850019308031AF20A5
:1000580080317E1020008031782822008E018D01A9
:100068008C0121000C1423000C1424000C10210016
:100078008C1023008C1424008C1021008E17230070
:100088008E1324008E1349303C00BD0021000E134E
:1000980023000E1324000E1304303D00A6008B1716
:1000A8000B17210011178B16290011088F393038CA
:1000B8009100FC309105111191170330900510142F
:1000C8002100971197121708F8390538970023006F
:1000D8009F111E111E1200309C0019309B009D17A5
:1000E8001E139E161D1608008031A720803180310E
:1000F8003120803108307A067B04031D8428852846
:100108007E28031022008C1C031403188C288F28C7
:1001180022008C14912822008C10FA01FB017E2801
:1001280080311328763461346C346F34723420345F
:10013800743465346D347034203465346E3420344E
:1001480043343A34003421001B08873938389B007F
:1001580003309B040800640080010131890BB0283A
:06016800003402340034F3
:020000040001F9
:04000E00E4C9FFDC66
:00000001FF
