:020000040000FA
:04000000803118280B
:100008007E1480310B1D09280A2816280B11740844
:10001800013EF4000030753DF50001302000DD00A0
:100028000030DE007E10090080311A28703084000C
:10003800003085000830813148218031203084002B
:10004800003085003D30813148218031A030840066
:100058000030850019308131482180317E10200020
:1000680080313628813140218031803184208031AF
:100078002000DD01DE011730F8008130F90047303B
:100088008031FA2080317508803AFD0080307D0289
:10009800031D50280B307402031C532854283C2895
:1000A800031022008C1C031403185B285E2822000E
:1000B8008C14602822008C10F401F501F201F30180
:1000C8007208473E86008701010823009A009E1C9B
:1000D8006E286F286B2800000130F2070030F33DCE
:1000E8007308803AFD0080307D02031D7D2816309C
:1000F8007202031C8028812864283C288031182833
:1001080022008E018D018C0121000C1423000C1497
:1001180024000C1021008C1023008C1424008C1057
:1001280021008E1723008E1324008E1321000E1336
:1001380023000E1324000E138B170B172100111325
:100148008B161112290011088F3930389100FC30B4
:100158009105111191170330900510102100971186
:1001680097121708F8390538970023009F111E15B4
:100178001E1200309C0019309B009D171E139E16FE
:100188001D162100911608004234693465346E3416
:10019800763465346E34693464346F342C342034E6
:1001A800793461342034703475346534643465349A
:1001B800203463346F346E34743472346F346C3476
:1001C80061347234203465346C34203464346534DA
:1001D800733470346C3461347A34613464346F3419
:1001E800723420345834593420340034FB007B08EE
:1001F800FA007A08FC0008290130FA007A08FC079E
:100208000130F8070030F93D7C088600870178083E
:100218008400790885000008C03F8908031D152956
:1002280016290029080043346F346D3461346E3464
:1002380064346F3420346E346F342034723465344F
:1002480063346F346E346F346334693464346F34B8
:100258000A340D340034763461346C346F347234BB
:100268002034743465346D347034203465346E341D
:10027800203443343A34003421001B088739383895
:100288009B0003309B040800640080010131890B46
:0402980049290034BC
:020000040001F9
:04000E00E4C9FFDC66
:00000001FF
