:020000040000FA
:0400000080311F2804
:100008007E1480310B1D09280A2811287A08013E20
:10001800FA0000307B3DFB000B112000111F152852
:1000280016281D2829000F08F5000E08F4002000E6
:1000380011137E100900803121288131112180316E
:10004800FA00813112218031FB00F001F101F20147
:10005800F301F401F50120308400003085001D30E3
:1000680081310B2180317E102000803182282200CE
:100078008E018D018C0121000C1423000C14240026
:100088000C1021008C1023008C1424008C102100EB
:100098008E1723008E1324008E1349303C00BD00B8
:1000A80021000E1323000E1324000E1304303D000C
:1000B800A6008B170B17210011178B1629001108A2
:1000C8008F3930389100FC309105111191170330A8
:1000D800900510142100971197121708F839053860
:1000E800970023009F111E111E1200309C0019302A
:1000F8009B009D171E139E161D1608008031FC20BC
:10010800803180313B2080310430F6008130F700A7
:100118008031B420803108307A067B04031D95288D
:1001280096288F28FA01FB01290090140310220059
:100138008C1C03140318A128A42822008C14A628B8
:1001480022008C100630F7008130F8008031DB2067
:1001580080310A308031F22080318F2880311F2889
:10016800C4287608840077088500000823009A00D0
:100178009E1CBF28C028BC280130F6070030F73D78
:1001880076088400770885001200031DCC28CD2846
:10019800B5280A3023009A009E1CD328D428D028DA
:1001A8000D309A009E1CD928DA28D6280800E8289D
:1001B800770884007808850000088031F2208031B3
:1001C8000130F7070030F83D77088400780885008B
:1001D8001200031DF028F128DC280800F600200092
:1001E800111EF728F828F328760823009A0008003B
:1001F80021001B08873938389B0003309B0408000E
:1002080031340034313461342034613400346400D2
:0E02180080010131890B0C29003402340034BE
:020000040001F9
:04000E00E4C9FFDC66
:00000001FF
