:020000040000FA
:0400000080312D28F6
:100008007E1480310B1D09280A281C280B110310A7
:1000180020008C1C031403181228152822008C14A5
:10002800172822008C10290090142100D501D50A28
:100038002000111F202821282B2829000F08210023
:10004800D70029000E082100D600200011137E10C9
:10005800090080312F28CD308400003085000B3016
:100068008731F9278031203084000130850019302C
:100078008731F92780317E10200097314A2F2100DF
:10008800C500AA30AE002E08B8003C2D25304C061D
:1000980003194F2850285D284C08AE0045088600F3
:1000A800013087002E0881000130AE002E08C507F8
:1000B8003C2DB901BA0128088400290885001200DE
:1000C8002E3A031D68286928A2283A170130A80784
:1000D8000030A93DC601C70195280A30F00000305C
:1000E800F10021004708F3004608F2009131A021F1
:1000F800803171082100C7007008C60028088400F4
:10010800290885000008D03EAE00FF3003180030F3
:10011800AF002E08C6072F08C73D0130A8070030DA
:10012800A93D2808840029088500000891318E21FE
:1001380080310318A028A1287128A828C601C70162
:100148003A16A8283A15BD2821002908AF00280822
:10015800AE00A80A0319A90A2E0884002F088500F2
:100168000008CC00003A0319502D663A0319A62856
:100178003C2D00303905AE0007303A05AF002E0897
:100188002F040319C828C928FA2C3A1ECC28CD28D0
:10019800D1280630C6000030C7003808860087011D
:1001A800403FC800413FC900423FCA00433FCB001F
:1001B8000430AE002E08B8074B08F3004A08F200D6
:1001C8004908F1004808F0000030F7000030F60058
:1001D8000030F5000030F4009431B5248031031864
:1001E800F628F728102921004B08F3004A08F200E6
:1001F8004908F1004808F0009131832180317308E3
:100208002100CB007208CA007108C9007008C80034
:100218000330B9040030BA042100BF01C0014B0803
:10022800F3004A08F2004908F1004808F0000030DD
:10023800F7000030F6000030F5000030F40092318D
:10024800E5228031031829292A29E12903102100F0
:100258004A0D4B0D823EBF00FF3003180030C0002E
:10026800FF30BF07FF30C03D0330F0000030F10021
:100278004008F3003F08F2009131A0218031710855
:100288002100C0007008BF000A30F7000030F800F5
:100298004008FA003F08F9009331E02380317808DC
:1002A8002100C0007708BF00C01F5B295C296029B6
:1002B800FF30BF07FF30C03D3F03FF3A8531562569
:1002C8008031200041082100C4002000400821009E
:1002D800C30020003F082100C20020003E08210082
:1002E800C1004B082000A70021004A082000A600F2
:1002F800210049082000A500210048082000A4008A
:10030800210044082000AB00210043082000AA0077
:10031800210042082000A900210041082000A8006F
:100328008D31A9258031200027082100C400200034
:1003380026082100C300200025082100C200200053
:1003480024082100C1004408F3004308F2004208D1
:10035800F1004108F0003F30F7008030F60000302F
:10036800F5000030F4009431B52480310318BD291C
:10037800BE29C429FF302100BF07FF30C03DE12955
:1003880021004408F3004308F2004208F100410844
:10039800F0004130F7002030F6000030F500003062
:1003A800F4009431B5248031031CDB29DC29E129D0
:1003B80001302100BF070030C03D21004708803AC6
:1003C800AE0080302E02031DEB290D3046020318C3
:1003D800EE29EF29202A210046088831352080316E
:1003E80020004108DB004008DA003F08D9003E0839
:1003F800D80021004B082000DF0021004A08200017
:10040800DE00210049082000DD0021004808200006
:10041800DC008B317123803120005B082100CB0088
:1004280020005A082100CA00200059082100C900EC
:10043800200058082100C80021004008803AAE007A
:1004480080302E02031D2A2A0A303F0203182D2A63
:100458002E2A702A21004B08F3004A08F2004908A6
:10046800F1004808F0000030F7000030F6000030D6
:10047800F5000030F4009231E52280310318452A56
:10048800462ACC2A21004B082000D60021004A0821
:100498002000D500210049082000D4002100480888
:1004A8002000D300943140248031200056085504A0
:1004B80054045304031D612A622ACC2A21004008EF
:1004C800803AAE0080302E02031D6C2A02303F02B3
:1004D800031C6F2A702ACC2A21004408F300430821
:1004E800F2004208F1004108F0004030F70089307E
:1004F800F6007030F5005F30F4009431B524803197
:100508000318872A882A8E2AF7302100BF07FF3070
:10051800C03D932AF8302100BF07FF30C03D3F0897
:10052800853156258031200041082100C400200073
:1005380040082100C30020003F082100C20020001D
:100548003E082100C1004B08F3004A08F2004908A0
:10055800F1004808F0004408F7004308F600420894
:10056800F5004108F4009531EB258031730821002E
:10057800BE007208BD007108BC007008BB000030E6
:10058800CB000030CA000030C9000030C8001A2B68
:1005980021004B082000D60021004A082000D50081
:1005A800210049082000D400210048082000D30079
:1005B800943140248031200056082100BE002000DC
:1005C80055082100BD00200054082100BC0020006F
:1005D80053082100BB003E08F3003D08F2003C0828
:1005E800F1003B08F000003095313F258031730859
:1005F8002100A3007208A2007108A1007008A000E1
:100608004B08A7004A08A6004908A5004808A40006
:100618009131E221803121002308CB002208CA0051
:100628002108C9002008C800BF01C001CC01CC0ABC
:100638004C08AE00AF01AE35AF0DAE35AF0D68302A
:100648002E07840098302F3D8500003FB000013F01
:10065800B100023FB200033FB30033083E02031D5E
:100668003F2B32083D02031D3F2B31083C02031D7E
:100678003F2B30083B020318422B432B442B4E2BB5
:100688000130AE002E08CC070A304C06031D4D2B56
:100698004E2B1C2B03303905AE0000303A05AF0055
:1006A8002E082F040319592B5A2BB62B2D30AE00C8
:1006B80045088600013087002E0881000130AE0011
:1006C8002E08C507B62B4C08AE00AF01AE35AF0DEE
:1006D800AE35AF0D68302E07840098302F3D850069
:1006E800003FF000013FF100023FF200033FF3003A
:1006F8003E08F7003D08F6003C08F5003B08F4000A
:1007080093318623803173082100C4007208C30026
:100718007108C2007008C1000030F3000030F20018
:100728000030F1000A30F0004408F7004308F600F2
:100738004208F5004108F40092319B228031730889
:100748002100C4007208C3007108C2007008C1000B
:100758004108303EAE0045088600013087002E086B
:100768008100622B0130CC024C0A031DBC2BBD2B2F
:10077800672BCF2B30302100AE00450886000130B2
:1007880087002E0881000130AE002E08C507FF3013
:10079800BF07FF30C03D4008803AAE0080302E02CF
:1007A800031DD82B01303F020318DB2BDC2BBE2B9B
:1007B80021004708803AAE0080302E02031DE62B48
:1007C80009304602031CE92BEA2BF02B08302100E4
:1007D800AE002E08CC00F52B21004608AE002E08EE
:1007E800CC004C08AE00AF012E08C6022F08C73B4C
:1007F8004C080319002C012C0D2C2E30AE00450896
:100808008600013087002E0881000130AE002E08D6
:10081800C5074C0885315625803120004108210044
:10082800B700200040082100B60020003F08210042
:10083800B50020003E082100B40037082000AB00B6
:10084800210036082000AA00210035082000A90050
:10085800210034082000A80021004B082000A70030
:1008680021004A082000A600210049082000A50010
:10087800210048082000A4008D31A92580312000DE
:100888002708D6002608D5002508D4002408D30058
:10089800943140248031200056082100BE002000F9
:1008A80055082100BD00200054082100BC0020008C
:1008B80053082100BB00DB2C4C08AE00AF01AE355D
:1008C800AF0DAE35AF0D68302E07840098302F3D40
:1008D8008500003FF000013FF100023FF200033FB6
:1008E800F3003E08F7003D08F6003C08F5003B0819
:1008F800F40093318623803173082100C400720804
:10090800C3007108C2007008C1000030F300003055
:10091800F2000030F1000A30F0004408F700430804
:10092800F6004208F5004108F40092319B2280311C
:1009380073082100C4007208C3007108C20070085F
:10094800C1004108303EAE004508860001308700EE
:100958002E0881000130AE002E08C5074C08AE00F5
:10096800AF01AE35AF0DAE35AF0D68302E07840040
:1009780098302F3D8500003FF000013FF100023F15
:10098800F200033FF3003E08F7003D08F6003C087C
:10099800F5003B08F40092319B2280317308210056
:1009A800BE007208BD007108BC007008BB000130B1
:1009B800CC024C0A031DE12CE22C602CF32C3030C5
:1009C800AE0045088600013087002E0881000130FE
:1009D800AE002E08C507FF30C607FF30C73D4608E2
:1009E8004704031DF82CF92CE32C3C2D460847043A
:1009F800031DFF2C002D0C2D3E083D043C043B0438
:100A0800031D072D082D0C2D0130C6070030C73DEA
:100A18004708803A803C031D132D46084C020318F2
:100A2800162D172D182D262D21004708803AAE00C7
:100A380080302E02031D222D4C0846020318252D56
:100A4800262D262D033021003905AE0000303A0549
:100A5800AF002E082F040319322D332D3C2D2D30D5
:100A6800AE0045088600013087002E08810058280E
:100A78002908AF002808AE00A80A0319A90A2E08F9
:100A880084002F0885000008B0003008CC004C080E
:100A9800031D4F2D502D4A28450886000130870038
:100AA800810108002000D200D21F5B2D5C2D982EFA
:100AB800D209D20A5208803A123E031C642D652DD1
:100AC800112E0A30F7000030F8005208F200F30146
:100AD800F21BF3036430F0000030F100933133234C
:100AE80085317108FA007008F9009331E0238531E7
:100AF8007708093E2000C200C301C235C30DC235C4
:100B0800C30D3430420784009830433D8500003FD0
:100B1800C400013FC500023FC600033FC7004708A5
:100B2800A7004608A6004508A5004408A4006430AC
:100B3800F7000030F8005208F900FA01F91BFA032F
:100B48009331E02385317708123E2000C800C9019F
:100B5800C835C90DC835C90D3430480784009830E8
:100B6800493D8500003FCA00013FCB00023FCC0051
:100B7800033FCD004D08AB004C08AA004B08A90064
:100B88004A08A8008D31A925853120002708D10001
:100B98002608D0002508CF002408CE000A30F0002F
:100BA8000030F1005208F200F301F21BF303933115
:100BB8003323853170082000C200C301C235C30D3C
:100BC800C235C30D3430420784009830433D850058
:100BD800003FC400013FC500023FC600033FC700F5
:100BE8004708A7004608A6004508A5004408A40031
:100BF8005108AB005008AA004F08A9004E08A800E9
:100C08008D31A925853120002708C1002608C0009C
:100C18002508BF002408BE00D12F5208803A753E2F
:100C2800031C172E182E7A2E0A30F0000030F1001F
:100C38005208F200F301F21BF30393313323853199
:100C480070082000C200C301C235C30DC235C30DF0
:100C58003430420784009830433D8500003FC4008B
:100C6800013FC500023FC600033FC7004708A70071
:100C78004608A6004508A5004408A4000A30F70065
:100C88000030F8005208F900FA01F91BFA03933111
:100C9800E02385317708093E2000C800C901C8351E
:100CA800C90DC835C90D3430480784009830493D0E
:100CB8008500003FCA00013FCB00023FCC00033F44
:100CC800CD004D08AB004C08AA004B08A9004A0803
:100CD800A8008D31A925853120002708C1002608E4
:100CE800C0002508BF002408BE00D12F5208C2004A
:100CF800C301C235C30DC235C30D34304207840069
:100D08009830433D8500003FC400013FC500023FC5
:100D1800C600033FC7004708C1004608C000450891
:100D2800BF004408BE00D12F5208803A123E031C6F
:100D38009E2E9F2E4B2F0A30F7000030F8005208E5
:100D4800F200F301F21BF3036430F0000030F1000D
:100D58009331332385317108FA007008F900933113
:100D6800E02385317708093E2000C200C301C2355F
:100D7800C30DC235C30D0030420784009830433D8F
:100D88008500003FC400013FC500023FC600033F85
:100D9800C7004708A7004608A6004508A50044085C
:100DA800A4006430F7000030F8005208F900FA0196
:100DB800F91BFA039331E02385317708123E2000AE
:100DC800C800C901C835C90DC835C90D0030480764
:100DD80084009830493D8500003FCA00013FCB00A0
:100DE800023FCC00033FCD004D08AB004C08AA00E1
:100DF8004B08A9004A08A8008D31A9258531200093
:100E08002708D1002608D0002508CF002408CE00E6
:100E18000A30F0000030F1005208F200F301F21B32
:100E2800F30393313323853170082000C200C301D6
:100E3800C235C30DC235C30D003042078400983057
:100E4800433D8500003FC400013FC500023FC60086
:100E5800033FC7004708A7004608A6004508A500A5
:100E68004408A4005108AB005008AA004F08A90084
:100E78004E08A8008D31A925853120002708C1001A
:100E88002608C0002508BF002408BE00D12F52083C
:100E9800803A753E031C512F522FB42F0A30F000B0
:100EA8000030F1005208F200F301F21BF303933112
:100EB8003323853170082000C200C301C235C30D39
:100EC800C235C30D0030420784009830433D850089
:100ED800003FC400013FC500023FC600033FC700F2
:100EE8004708A7004608A6004508A5004408A4002E
:100EF8000A30F7000030F8005208F900FA01F91B2F
:100F0800FA039331E02385317708093E2000C800B1
:100F1800C901C835C90DC835C90D00304807840056
:100F28009830493D8500003FCA00013FCB00023F91
:100F3800CC00033FCD004D08AB004C08AA004B087D
:100F4800A9004A08A8008D31A92585312000270865
:100F5800C1002608C0002508BF002408BE00D12F04
:100F68005208C200C301C235C30DC235C30D0030DB
:100F7800420784009830433D8500003FC400013F8C
:100F8800C500023FC600033FC7004708C100460826
:100F9800C0004508BF004408BE000800E22F7008E2
:100FA800840071088500000823009A009E1CDD2F2C
:100FB800DE2FDA2F0130F0070030F13D7008840091
:100FC800710885001200031DEA2FEB2FD32F0A307A
:100FD80023009A009E1CF12FF22FEE2F0D309A005D
:100FE8009E1CF72FF82FF42F0800640080010131B0
:060FF800890BFA2F003402
:10100200700871040319062807283028F501F50A2B
:1010120013280130F035F10D890B0B280130F40053
:101022007408F507F11F162817280A287108730299
:10103200031D1D2870087202031C20282128252860
:101042007008F2027108F33B0130F136F00C890BA3
:1010520026280130F502031D2F283028172873088F
:10106200F1007208F00008002000D0006E3050023B
:10107200031C3C283D2806293F30A7000030A6006B
:101082000030A5000030A4006430F6000030F70004
:101092005008C200C3014208F8004308F900923127
:1010A2001822883177088500760884008435850DFA
:1010B2008435850D7C3084079830853D003F2000C3
:1010C200C400013FC500023FC600033FC7004708F6
:1010D200AB004608AA004508A9004408A8008D31C3
:1010E200A925883120002708CF002608CE00250830
:1010F200CD002408CC000A30F6000030F70050087A
:10110200C200C3014208F2004308F3006430F00059
:101112000030F1008831012088317108F90070082F
:10112200F800923118228831770885007608840009
:101132008435850D8435850D583084079830853D7A
:10114200003F2000C400013FC500023FC600033F2C
:10115200C7004708A7004608A6004508A50044089E
:10116200A4004F08AB004E08AA004D08A9004C0885
:10117200A8008D31A925883120002708CB00260838
:10118200CA002508C9002408C8000A30F00000304F
:10119200F1005008C200C3014208F2004308F30004
:1011A20088310120883171088500700884008435F7
:1011B200850D8435850D343084079830853D003F98
:1011C2002000C400013FC500023FC600033FC70024
:1011D2004708A7004608A6004508A5004408A40041
:1011E2004B08AB004A08AA004908A9004808A80011
:1011F2008D31A925883120002708C1002608C000AA
:101202002508BF002408BE00BC290B305002031C75
:101212000B290C298B293F30A7000030A600003093
:10122200A5000030A4000A30F6000030F700500894
:10123200C200C3014208F8004308F90092311822A3
:10124200883177088500760884008435850D8435D9
:10125200850D583084079830853D003F2000C4003A
:10126200013FC500023FC600033FC7004708AB006D
:101272004608AA004508A9004408A8008D31A925FE
:10128200883120002708CF002608CE002508CD008F
:101292002408CC000A30F0000030F1005008C200EF
:1012A200C3014208F2004308F3008831012088316B
:1012B20071088500700884008435850D8435850D9C
:1012C200343084079830853D003F2000C400013F40
:1012D200C500023FC600033FC7004708A7004608F3
:1012E200A6004508A5004408A4004F08AB004E081C
:1012F200AA004D08A9004C08A8008D31A925883103
:1013020020002708C1002608C0002508BF002408C5
:10131200BE00BC293F30A7000030A6000030A50067
:101322000030A4005008C200C301C235C30DC2354B
:10133200C30D3430420784009830433D8500003F9E
:10134200C400013FC500023FC600033FC700470873
:10135200AB004608AA004508A9004408A8008D3140
:10136200A925883120002708C1002608C0002508C9
:10137200BF002408BE000800200045088039C600CE
:101382004608CF004535C6004608D600C41FCA2904
:10139200CB29CC29561456080319D029D129E12981
:1013A200560A031DD529D629DE290030C500003092
:1013B200C4000030C3000030C200C417C501E929CF
:1013C2000030C5000030C4000030C3000030C2004D
:1013D20041088039C6004608CF064135C600460896
:1013E200D700C01FF529F629F72957145708031902
:1013F200FB29FC290C2A570A031D002A012A092A63
:101402000030C1000030C0000030BF000030BE001C
:10141200C017C101142A0030C1000030C0000030E2
:10142200BF000030BE00410840043F043E04031DDB
:101432001B2A1C2A352A0030C5000030C4000030A7
:10144200C3000030C2008030C4047F30C5044F089E
:10145200C6004608C5044508C1004408C000430848
:10146200BF004208BE00702B5608031D392A3A2AD3
:10147200432A0030C1000030C0000030BF000030FD
:10148200BE00702B5608C600C7014708C90057089E
:101492004602C800031CC90348087F3ED000003042
:1014A200493DD1004508CE004408CD004308CC0098
:1014B2004208CB000030C5000030C4000030C30039
:1014C2000030C2000030D5000030D4000030D3001C
:1014D2000030D200D701AB2A57080319712A722AA9
:1014E2008C2A0130CB35CC0DCD0DCE0D890B732A54
:1014F2000130C235C30DC40DC50D890B7A2AD51F23
:10150200832A842A852A42140130D235D30DD40D80
:10151200D50D890B862A41084E02031D9A2A4008DE
:101522004D02031D9A2A3F084C02031D9A2A3E08C7
:101532004B02031C9D2A9E2AA72A55173E08CB025E
:101542003F08CC3B4008CD3B4108CE3B0130C600B2
:101552004608D7071A305702031CB02AB12A6D2A4F
:101562004E084D044C044B040319B82AB92AD22A56
:101572005214D22A0130C235C30DC40DC50D890BD8
:10158200BC2AD51FC52AC62AC72A42140130D23521
:10159200D30DD40DD50D890BC82AFF30D007FF30EB
:1015A200D13DC41FD52AD62ABB2AD701D51FDA2A94
:1015B200DB2AF72AFF305205C600FF305305C70069
:1015C200FF305405C8007F305505C900490848045A
:1015D200470446040319EE2AEF2AF22AD701D70A52
:1015E200F72A421CF52AF62AF72AEF2A5708031986
:1015F200FB2AFC2A242B0130C2070030C33D0030F5
:10160200C43D0030C53D451C072B082B242B420846
:10161200C6004308C7004408C8004508C900013095
:10162200CA00C937C80CC70CC60CCA0B122B490812
:10163200C5004808C4004708C3004608C20001307C
:10164200D0070030D13D5108803AC60080304602B2
:10165200031D2D2BFF305002031C302B312B3E2B50
:10166200FF302000D0000030D1000030C500003033
:10167200C4000030C3000030C20020005108803A8C
:10168200C60080304602031D482B01305002031869
:101692004B2B4C2B582B2000D001D1010030C50020
:1016A2000030C4000030C3000030C200CF0120006F
:1016B2005008C6004608D600561C602B612B632BCF
:1016C200C417672B7F30C6004608C4055636C600CD
:1016D2004608C5004F08C6004608C5042C2A080063
:1016E20020005B088039E0006008E8005B35E0001C
:1016F2006008EA00DA1F7E2B7F2B802B6A146A08AF
:101702000319842B852B952B6A0A031D892B8A2B9F
:10171200922B0030DB000030DA000030D9000030BC
:10172200D800DA17DB019D2B0030DB000030DA0035
:101732000030D9000030D8005F088039E00060082E
:10174200E900690868060319A72BA82BA92B6817BB
:101752005F35E0006008E900DE1FB02BB12BB22B31
:10176200691469080319B62BB72BC72B690A031D25
:10177200BB2BBC2BC42B0030DF000030DE0000305E
:10178200DD000030DC00DE17DF01CF2B0030DF0090
:101792000030DE000030DD000030DC006A08690243
:1017A2000318D42BD52B192C681FD82BD92BDD2B42
:1017B2008030E0006008E8066A08E0006008EB009C
:1017C2006908E0006008EA006B08E0006008E900D0
:1017D2005808E0006008EB005C08E0006008D800F0
:1017E2006B08E0006008DC005908E0006008EB00CC
:1017F2005D08E0006008D9006B08E0006008DD00C9
:101802005A08E0006008EB005E08E0006008DA00B9
:101812006B08E0006008DE005B08E0006008EB0097
:101822005F08E0006008DB006B08E0006008DF0092
:10183200EB016908E000E1016108E3006A08600267
:10184200E200031CE3036308803AE4008030640290
:10185200031D2D2C1A306202031C302C312C692CF2
:1018620020005B085A0459045804031D392C3B2CF0
:1018720001303C2C0030E0006008EB000030DB005F
:101882000030DA000030D9000030D8006908E000EA
:101892006008EA00702C6B1C4F2C502C562C6B36B7
:1018A2000138E0006008EB00582C0310EB0C581CC8
:1018B2005B2C5C2C5D2CEB170130E000DB37DA0C83
:1018C200D90CD80CE00B5F2C0130E0006008EA076D
:1018D200200069086A02031C6F2C702C4C2C681BB8
:1018E200732C742CAC2C6A08031D782C792C822C56
:1018F2000030DB000030DA000030D9000030D800C0
:10190200A82D5C08D8075D08D93D5E08DA3D5F085E
:10191200DB3D5B1C8D2C8E2C382D6B1C912C922C5C
:10192200982C6B360138E0006008EB009A2C03100B
:10193200EB0C581C9D2C9E2C9F2CEB170130E000C9
:10194200DB37DA0CD90CD80CE00BA12C0130E0000B
:101952006008EA07382D5B08803AE0005F08803AA9
:101962006002031DBE2C5E085A02031DBE2C5D08D8
:101972005902031DBE2C5C0858020318C12CC22C4C
:10198200FA2CFF30E000FF30E100FF30E200FF30D0
:10199200E30058085C02E40059085D3BE5005A0880
:1019A2005E3BE6005B085F3BE7006408E007650812
:1019B200E13D6608E23D6708E33D6308DB0062083B
:1019C200DA006108D9006008D8008030E0006008C1
:1019D200E806EB09EB0A6B08031DF02CF12C022D33
:1019E2000130D8070030D93D0030DA3D0030DB3D10
:1019F200022D5C08D8025D08D93B5E08DA3B5F081D
:101A0200DB3B5B085A0459045804031D092D0A2DB7
:101A1200342D6B08031D0E2D0F2D342D0030DB00ED
:101A22000030DA000030D9000030D800A82D013093
:101A3200D835D90DDA0DDB0D890B192DEB1F222DAF
:101A4200232D242D58146B1C272D282D2B2D0314E8
:101A5200EB0D2D2D0310EB0D6A080319312D322DDC
:101A6200342D0130EA02DA1F372D382D182DE90105
:101A7200EB1F3C2D3D2D4B2D6B087F390319422D59
:101A8200432D462DE901E90A4B2D581C492D4A2DBB
:101A92004B2D432D690803194F2D502D7D2D0130FB
:101AA200D8070030D93D0030DA3D0030DB3D5B1C09
:101AB2005B2D5C2D7D2D5808E0005908E1005A0885
:101AC200E2005B08E3000130E400E337E20CE10CE2
:101AD200E00CE40B662D6308DB006208DA006108A3
:101AE200D9006008D8006A0A0319782D792D7D2D56
:101AF2000130E0006008EA076A0A0319812D822D8D
:101B0200872D6A08031D862D872D952D0030DB0059
:101B12000030DA000030D9000030D8006A08031D16
:101B2200932D942D952DE8016A1C982D992D9B2DAE
:101B3200DA179F2D7F30E0006008DA056A36E00090
:101B42006008DB00E81FA62DA72DA82DDB170800D3
:101B5200200027088039AC002C08B1002735AC00E2
:101B62002C08B700A61FB62DB72DB82D371437088D
:101B72000319BC2DBD2DCC2D370A031DC12DC22D3D
:101B8200CA2D0030A7000030A6000030A5000030AA
:101B9200A400A617D42D0030A7000030A600003004
:101BA200A5000030A4002B088039AC002C08B10637
:101BB2002B35AC002C08B600AA1FE02DE12DE22D3A
:101BC200361436080319E62DE72DF62D360A031DC5
:101BD200EB2DEC2DF42D0030AB000030AA000030CC
:101BE200A9000030A800AA17FE2D0030AB0000307B
:101BF200AA000030A9000030A80036080319022EFE
:101C0200032E082E3708031D072E082E112E003032
:101C1200A7000030A6000030A5000030A400FF2F6E
:101C22002408AC002C08F0002A089131BF218D3124
:101C320071082000BD007008BC003C08AC00AD017A
:101C4200AE01AF012F08B5002E08B4002D08B30075
:101C52002C08B2003D08AC00AD01AE01AF012F0867
:101C6200BB002E08BA002D08B9002C08B8002508C0
:101C7200AC002C08F00029089131BF218D31710888
:101C82002000BD007008BC003C08AC00AD01AE01F4
:101C9200AF012C08B2072D08B33D2E08B43D2F0822
:101CA200B53D3D08AC00AD01AE01AF012C08B8074F
:101CB2002D08B93D2E08BA3D2F08BB3D2608AC00C1
:101CC2002C08F00028089131BF218D3171082000C5
:101CD200BD007008BC003C08AC00AD01AE01AF0114
:101CE2002C08B2072D08B33D2E08B43D2F08B53D90
:101CF2003D08AC00AD01AE01AF012C08B8072D08BC
:101D0200B93D2E08BA3D2F08BB3D0830B235B30DA0
:101D1200B40DB50D890B872E2508AC002C08F000F8
:101D220028089131BF218D3171082000BD00700853
:101D3200BC003C08B2073D08B33D0030B43DB53DA0
:101D42002408AC002C08F00029089131BF218D3104
:101D520071082000BD007008BC003C08B2073D08B5
:101D6200B33D0030B43DB53D0830B235B30DB40DCE
:101D7200B50D890BB62E2408AC002C08F0002808FB
:101D82009131BF218D3171082000BD007008BC0067
:101D92003C08B2073D08B33D0030B43DB53D2508CF
:101DA200AC002C08F0002A089131BF218D31710856
:101DB2002000BD007008BC003C08B8073D08B93DD2
:101DC2000030BA3DBB3D2608AC002C08F0002908C3
:101DD2009131BF218D3171082000BD007008BC0017
:101DE2003C08B8073D08B93D0030BA3DBB3D260866
:101DF200AC002C08F0002A089131BF218D31710806
:101E02002000BD007008BC003C08AC003D08AD00DD
:101E1200AE01AF010830AC35AD0DAE0DAF0D890B83
:101E22000C2F2C08B8072D08B93D2E08BA3D2F08F3
:101E3200BB3D3208AC003308AD003408AE003508B3
:101E4200AF001830AF36AE0CAD0CAC0C890B232FA3
:101E52002C08B8072D08B93D2E08BA3D2F08BB3D06
:101E62000830B235B30DB40DB50D890B322F3708DA
:101E72003607AC00AD01AD0D2C08823EBC00FF3030
:101E82002D3DBD005B2F0130B835B90DBA0DBB0D2C
:101E9200890B452FB51F4E2F4F2F502F381401306D
:101EA200B235B30DB40DB50D890B512FFF30BC0700
:101EB200FF30BD3DBA1F5E2F5F2F442FB601B51F05
:101EC200632F642F802FFF303205AC00FF303305C3
:101ED200AD00FF303405AE007F303505AF002F086E
:101EE2002E042D042C040319772F782F7B2FB60193
:101EF200B60A802F381C7E2F7F2F802F782F36082E
:101F02000319842F852FAD2F0130B8070030B93D5A
:101F12000030BA3D0030BB3D3B1C902F912FAD2FBE
:101F22003808AC003908AD003A08AE003B08AF00F3
:101F32000130B000AF37AE0CAD0CAC0CB00B9B2F28
:101F42002F08BB002E08BA002D08B9002C08B800D3
:101F52000130BC070030BD3D3D08803AAC00803006
:101F62002C02031DB62FFF303C02031CB92FBA2FDF
:101F7200C42F7F302000BB008030BA000030B9008F
:101F82000030B800F32F20003D08803AAC008030CA
:101F92002C02031DCE2F01303C020318D12FD22F69
:101FA200DD2F00302000BB000030BA000030B90045
:101FB2000030B800B101F32F20003C08AC002C081F
:101FC200B700FF30B805FF30B9057F30BA050030E1
:101FD200BB05371CED2FEE2FEF2FBA173736AC00AB
:101FE2002C08BB003108AC002C08BB043B08A7003E
:0E1FF2003A08A6003908A5003808A400080027
:1022F60021001B08873938389B0003309B040800EF
:10230600730872047104700403198A298B298D29B4
:102316008030F3060800F100F0013A30710203182C
:10232600952996299E2930307102031C9B299C29E8
:102336009E29F001F00A700C0800F401F501701CEA
:10234600A529A629AA297208F4077308F53D0130C4
:10235600F235F30D890BAB290130F136F00C890B00
:10236600B02970087104031DB929BA29A229750874
:10237600F1007408F0000800F800F401F501700897
:10238600F200F3017208F6007308F700781CCC29F6
:10239600CD29D1297608F4077708F53D0130F635C1
:1023A600F70D890BD2290310F80C7808031DDC29D8
:1023B600DD29C9297508F1007408F000080080308D
:1023C6002100A30627082000DB00210026082000A4
:1023D600DA00210025082000D90021002408200069
:1023E600D800210023082000DF0021002208200059
:1023F600DE00210021082000DD0021002008200049
:10240600DC008B317123913120005B082100A30091
:1024160020005A082100A200200059082100A1002E
:10242600200058082100A0000800FB01FC017608E6
:10243600770403191F2A202A4F2AFD01FD0A2C2A98
:102446000130F635F70D890B242A0130FA007A0897
:10245600FD07F71F2F2A302A232A0130FB35FC0DF2
:10246600890B312A77087902031D3B2A7608780200
:10247600031C3E2A3F2A442A7608F8027708F93BCD
:102486007B140130F736F60C890B452A0130FD0224
:10249600031D4E2A4F2A302A7C08F7007B08F600D7
:1024A600080022008E018D018C0121000C142300EE
:1024B6000C1424000C1021008C1023008C14240012
:1024C6008C1021008E1723008E1324008E134930A2
:1024D6003C00BD0021000E1323000E1324000E1332
:1024E60004303D00A6008B170B17210011178B1621
:1024F600290011088F3930389100FC3091051111EF
:1025060091170330900510142100971197121708A0
:10251600F8390538970023009F111E111E1200304E
:102526009C0019309B009D171E139E161D16080051
:1025360073087204710470040319A22AA32ADC2A00
:10254600F901F90AB12A0130F035F10DF20DF30D5A
:10255600890BA72A0130F8007808F907F31FB42A77
:10256600B52AA62A73087702031DC32A72087602C3
:10257600031DC32A71087502031DC32A700874025D
:10258600031CC62AC72ACF2A7008F4027108F53B35
:102596007208F63B7308F73B0130F336F20CF10C88
:1025A600F00C890BD02A0130F902031DDB2ADC2A44
:1025B600B52A7708F3007608F2007508F10074086A
:1025C600F000080000307005F80000307105F900D1
:1025D60080307205FA007F307305FB007B087A04B1
:1025E60079047804031DF82AF92A012B0030F30038
:1025F6000030F2000030F1000030F00000307405C9
:10260600F80000307505F90080307605FA007F3055
:102616007705FB007B087A0479047804031D142BE4
:10262600152B1D2B0030F7000030F6000030F500AA
:102636000030F40077087306031D2B2B760872060C
:10264600031D2B2B75087106031D2B2B74087006B2
:1026560003192E2B2F2B312B0310322B03140800BA
:10266600F601F31F372B382B3F2BF209F309F20A39
:102676000319F30AF601F60AF11F422B432B482BE6
:10268600F009F109F00A0319F10A70087104031937
:102696004D2B4E2B772BF501F50A5A2B0130F035D1
:1026A600F10D890B522B0130F4007408F507F11F68
:1026B6005D2B5E2B512B71087302031D642B700872
:1026C6007202031C672B682B6C2B7008F2027108D0
:1026D600F33B0130F136F00C890B6D2B0130F5021E
:1026E600031D762B772B5E2B760803197B2B7C2B11
:1026F600812BF209F309F20A0319F30A7308F100B0
:102706007208F00008000030FC000030FB000030CA
:10271600FA000030F900730872047104700403199A
:10272600952B962BD72BFD01FD0AA42B0130F035F6
:10273600F10DF20DF30D890B9A2B0130F800780894
:10274600FD07F31FA72BA82B992B0130F935FA0D9E
:10275600FB0DFC0D890BA92B73087702031DBD2BFE
:1027660072087602031DBD2B71087502031DBD2B71
:1027760070087402031CC02BC12BCA2B7008F4020C
:102786007108F53B7208F63B7308F73B7914013084
:10279600F336F20CF10CF00C890BCB2B0130FD0259
:1027A600031DD62BD72BA82B7C08F3007B08F20041
:1027B6007A08F1007908F00008002000A101F81F4E
:1027C600E52BE62BED2BF709F809F70A0319F80AAA
:1027D600A101A10AFA1FF02BF12BFA2BF909FA092C
:1027E600F90A0319FA0A0130FB007B08A106A201C7
:1027F600A301770878040319012C022C312CA001BF
:10280600A00A0E2C0130F735F80D890B062C013085
:10281600FB007B08A007F81F112C122C052C013099
:10282600A235A30D890B132C78087A02031D1D2CE3
:1028360077087902031C202C212C262C7708F90214
:102846007808FA3B22140130F836F70C890B272C4E
:102856000130A002031D302C312C122C2108031943
:10286600352C362C3B2CA209A309A20A0319A30A6C
:102876002308F8002208F700080003102000550D71
:10288600560DD7005708DD005D08031D4B2C4C2C58
:10289600552C0030D6000030D5000030D400003072
:1028A600D300B42C5308D7005408D8005508D900D3
:1028B6005608DA001F30DA36D90CD80CD70C890B3B
:1028C6005E2C5708DB005B08DC00D517FF30D3050C
:1028D600FF30D405FF30D5050030D6059630DD0231
:1028E600DD1F762C772C8F2C5D08803A973E0318D7
:1028F6007D2C7E2C7F2C4C2C0130D636D50CD40C5E
:10290600D30C890B802C0130D7005708DD07031D37
:102916008D2C8E2C7F2CA42C20305D02031C942C35
:10292600952C9F2C4C2C0130D335D40DD50DD60DBE
:10293600890B972C0130DD025D08031DA32CA42C06
:10294600962C5C080319A82CA92CB42CD309D409FD
:10295600D509D609D30A0319D40A0319D50A0319C6
:10296600D60A080000307005F80000307105F9003D
:1029760080307205FA007F307305FB007B087A040D
:1029860079047804031DC82CC92CD12C0030F3001F
:102996000030F2000030F1000030F0000030740525
:1029A600F80000307505F90080307605FA007F30B2
:1029B6007705FB007B087A0479047804031DE42C70
:1029C600E52CED2C0030F7000030F6000030F50065
:1029D6000030F400F31FF02CF12C092D0030F80024
:1029E6000030F9000030FA008030FB007008F80271
:1029F6007108F93B7208FA3B7308FB3B7B08F3004E
:102A06007A08F2007908F1007808F000F71F0C2D1B
:102A16000D2D252D0030F8000030F9000030FA00A9
:102A26008030FB007408F8027508F93B7608FA3B1B
:102A36007708FB3B7B08F7007A08F6007908F50073
:102A46007808F4008030F3068030F70677087302C2
:102A5600031D372D76087202031D372D7508710286
:102A6600031D372D7408700203183A2D3B2D3D2D9A
:102A760003103E2D03140800F80078080319442DAE
:102A8600452D592DF31F482D492D592D7009FA0052
:102A96007109FB007209FC007309FD00FA0A0319AB
:102AA600FB0A0319FC0A0319FD0A612D7308FD00D0
:102AB6007208FC007108FB007008FA0073087204C3
:102AC60071047004031D682D692D722D0030F3000A
:102AD6000030F2000030F1000030F000EA2D9630B0
:102AE600F4007408F900822D0130F4007408F90727
:102AF6000130FD36FC0CFB0CFA0C890B7C2DFE30EC
:102B06007D05031D872D882D772D9C2D0130F40022
:102B16007408F9070130FA070030FB3D0030FC3D30
:102B26000030FD3D0130FD36FC0CFB0CFA0C890B28
:102B3600962DFF307D05031DA12DA22D892DAC2DCF
:102B46000130F9020130FA35FB0DFC0DFD0D890B44
:102B5600A62DFC1BAF2DB02DB62D02307902031821
:102B6600B52DB62DA32D7918B92DBA2DC22DFF304E
:102B7600FA05FF30FB057F30FC05FF30FD0503102D
:102B8600F90C7908F400F501F601F7011830F4356F
:102B9600F50DF60DF70D890BCA2D7408FA047508A4
:102BA600FB047608FC047708FD0478080319DC2D7D
:102BB600DD2DE22DF31FE02DE12DE22DFD177D0821
:102BC600F3007C08F2007B08F1007A08F0000800A8
:102BD6000310720D730DF80078082000A500250873
:102BE600031DF62DF72D002E0030F3000030F20005
:102BF6000030F1000030F000992E0310760D770DAD
:102C0600F8007808A4002408031D0A2E0B2E0C2EAB
:102C1600F72DF217FF30F005FF30F105FF30F20512
:102C26000030F305F617FF30F405FF30F505FF30E9
:102C3600F6050030F7050030A3000030A200003092
:102C4600A1000030A0007F30A502A0302407F800C4
:102C56007808A5022030F8007808A4000130A035D5
:102C6600A10DA20DA30D890B322E77087302031D49
:102C7600462E76087202031D462E75087102031D44
:102C8600462E74087002031C492E4A2E532E7408D1
:102C9600F0027508F13B7608F23B7708F33B201407
:102CA6000130F035F10DF20DF30D890B542E013084
:102CB600A402031D5F2E602E312EA51F632E642EE7
:102CC6007C2E2508803A9F3E03186A2E6B2E6C2EAA
:102CD600F72D0130A336A20CA10CA00C890B6D2E8A
:102CE6000130F8007808A507031D7A2E7B2E6C2E7E
:102CF600912E20302502031C812E822E8C2EF72D3C
:102D06000130A035A10DA20DA30D890B842E013033
:102D1600A5022508031D902E912E832E2308F3006D
:102D26002208F2002108F1002008F00008007008CF
:102D3600F8007108F9007208FA000310790D7A0D8F
:102D4600FB007B082000A5002508031DAB2EAC2E3A
:102D5600B52E0030F3000030F2000030F1000030F4
:102D6600F000492F7408F8007508F9007608FA0093
:102D76000310790D7A0DFB007B08A4002408031DBF
:102D8600C52EC62EC72EAC2EF117FF30F005FF302C
:102D9600F1050030F205F517FF30F405FF30F505B3
:102DA6000030F6050030A3000030A2000030A1007C
:102DB6000030A0007F30A50298302407F80078087C
:102DC600A5021830F8007808A4000130A035A10D3E
:102DD600A20DA30D890BE92E76087202031DF92EAA
:102DE60075087102031DF92E74087002031CFC2E6F
:102DF600FD2E042F7408F0027508F13B7608F23BAD
:102E060020140130F035F10DF20D890B052F01303C
:102E1600A402031D0F2F102FE82EA51F132F142F0A
:102E26002C2F2508803A973E03181A2F1B2F1C2F8C
:102E3600AC2E0130A336A20CA10CA00C890B1D2FC1
:102E46000130F8007808A507031D2A2F2B2F1C2F09
:102E5600412F18302502031C312F322F3C2FAC2E68
:102E66000130A035A10DA20DA30D890B342F013021
:102E7600A5022508031D402F412F332F2308F300F9
:102E86002208F2002108F1002008F0000800913124
:102E96007B21973192315422973121005503031D2E
:102EA600552F562F502F44302000C1007F30C000D0
:102EB600C030BF000030BE004530A7009C30A600E1
:102EC6004030A5000030A40021005608F000570845
:102ED600F100890D893B8909F200F3000130953133
:102EE6003F25973173082000AB007208AA007108CD
:102EF600A9007008A8008D31A92597312000270860
:102F0600C5002608C4002508C3002408C20089316C
:102F1600BD219731200041082100D400200040083F
:102F26002100D30020003F082100D20020003E08E7
:102F36002100D100C0302000DB007330DA003330CE
:102F4600D9003330D8004130C1002030C0000030F5
:102F5600BF000030BE00210054082000C50021003B
:102F660053082000C400210052082000C30021009D
:102F760051082000C2008931BD2197312000410847
:102F8600DF004008DE003F08DD003E08DC008B3134
:102F96007123973120005B082100D00020005A08D9
:102FA6002100CF00200059082100CE00200058083B
:102FB6002100CD00D5019030F0009830F100873126
:102FC600D2279731A1302100A8009830A9005008D7
:102FD600AD004F08AC004E08AB004D08AA002030EB
:102FE6008031432097312030F0000130F1008731E5
:102FF600D2279731502F80312D2800340034803469
:103006003F34003400342034413400340034C834B2
:103016004234003400347A344434003440341C34AE
:10302600463400345034C3344734003424347434C2
:1030360049348034963418344B342034BC34BE348E
:103046004C3428346B346E344E34F934023415342F
:103056005034EC347834AD346034CA34F234493404
:1030660071340034003480343F34CD34CC34CC3425
:103076003D340A34D73423343C346F341234833429
:103086003A341734B734D1343834AC34C5342734F1
:103096003734BD343734863435349534BF34D6347A
:1030A60033347734CC342B3432345F34703489344F
:1030B6003034FF34E634DB342E340834E5343C3423
:1030C6001E3460344234A2340D34013400340034EA
:1030D60000340A34003400340034643400340034DC
:1030E6000034E83403340034003410342734003418
:1030F6000034A034863401340034403442340F3472
:10310600003480349634983400340034E134F53495
:1031160005340034CA349A343B34763461346C3422
:103126006F3472342034743465346D347034203422
:1031360065346E34203443343A34003467347234A0
:10314600613464346F3473343A34203425342E3485
:0A3156003134663420344334003471
:020000040001F9
:04000E00E4C9FFDC66
:00000001FF
