:0600000000F055EF00F0D6
:10000800FFFF5D82FACF03F0FBCF04F046EF11F05B
:10001800FFFF5D80D8CF11F0E8CF12F0E0CF13F0EA
:10002800FACF14F0FBCF15F0E9CF16F0EACF17F0AE
:10003800E1CF18F0E2CF19F0D9CF1AF0DACF1BF0E0
:10004800F3CF1CF0F4CF1DF0F6CF1EF0F7CF1FF062
:10005800F8CF20F0F5CF21F021C0F5FF20C0F8FF40
:100068001FC0F7FF1EC0F6FF1DC0F4FF1CC0F3FF42
:100078001BC0DAFF1AC0D9FF19C0E2FF18C0E1FFA0
:1000880017C0EAFF16C0E9FF15C0FBFF14C0FAFF4E
:1000980013C0E0FF12C0E8FF11C0D8FF5D90100048
:1000A800FFFFE4EF15F0FFFFA90E0101636F000EDB
:1000B8000101646FD2EF06F0FFFF250E01017819E8
:1000C800D8B40BD0A5C0D9FFA6C0DAFF78C1DFFF2E
:1000D8000001A54BA62BD2EF06F0FFFF000E010191
:1000E8006C6F000E6B6F000E0101746F000E736F62
:1000F80006D0FFFF010173850001A74BA82BFFFF66
:10010800A7C0F6FFA8C0F7FF0800FFFFF550300AA8
:10011800D8B4EFD7A7C0F6FFA8C0F7FF0800FFFFC5
:10012800F55021EC17F0D8A04BD0000E01016C6FF0
:10013800000E6B6FFFFF6BC130F06CC131F0000E29
:10014800336E0A0E326EF7EC16F030C06BF131C028
:100158006CF1D00E0001AC6FFF0E0001AD6FA7C0AF
:10016800F6FFA8C0F7FF0800FFFFF5500001AE6FCB
:10017800AF6B0001AC510001AE270001AD51000189
:10018800AF230001AE5101016B270001AF510101FE
:100198006C230001A74BA82BA7C0F6FFA8C0F7FF48
:1001A8000800FFFFF55021EC17F0D8A009D0C2D7FE
:1001B800FFFF0101748527D0FFFF0101738F23D052
:1001C800FFFFA7C0F6FFA8C0F7FF0001A74BA82BA9
:1001D8000800FFFFF5CF78F101017851000AD8B483
:1001E800E3EF06F0580AD8B4E7D73C0AD8B40BD0E6
:1001F800020AD8B4DDD70F0AD8B405D0110AD8B48A
:10020800DBD7D2EF06F0FFFF070E01017415D8B453
:10021800D3D3000E0101666F060E656F63C1D9FF67
:1002280064C1DAFFDECF75F1DECF76F1DDCF77F18D
:10023800030E01016327000E6423010177AF11D07B
:1002480075C122F076C123F077C124F00CEC17F0C9
:1002580022C075F123C076F124C077F1030E0101A5
:100268007313FFFF000E01016E6F000E6D6F010129
:1002780075510101761101017711D8B495D0820E1C
:100288000001AC6FFF0E0001AD6F75C1AEF076C115
:10029800AFF077C1B0F078C1B1F0100E07D0FFFF12
:1002A8000001D890B133B033AF33AE33FFFFE82E3F
:1002B800F6D70001AE510001AC2501016D6F000EAB
:1002C8000001AD2101016E6F01016D07D8A06E0715
:1002D8006DC130F06EC131F0000E336E030E326E18
:1002E800F7EC16F030C06DF131C06EF16DC128F039
:1002F8006EC129F0000E2B6E0A0E2A6E98EC14F0CF
:1003080028C06DF129C06EF101016EAF04D0010162
:100318006D07D8A06E07FFFF01016D51000882EC40
:100328000AF089C067F18AC068F18BC069F167C1BA
:1003380036F068C137F069C138F075C139F076C157
:100348003AF077C13BF0E0EC11F036C067F137C006
:1003580068F138C069F167C122F068C123F069C14A
:1003680024F0000E256E800E266E3F0E276E4AEC96
:1003780014F0D8B005D001016D07D8A06E0714D0CD
:10038800FFFF67C122F068C123F069C124F0000EA5
:10039800256E200E266E410E276E4AEC14F0D8A06A
:1003A80003D001016D4B6E2BFFFF010166BF08D022
:1003B800010166511EE10D0E0101655DD8B019D02D
:1003C800FFFF75C193F076C194F077C195F00101F4
:1003D8006551FBEC0DF089C096F08AC097F08BC090
:1003E80098F0B3EC0CF093C075F194C076F195C019
:1003F80077F1FFFF01016EBF08D001016E512BE1BB
:100408000A0E01016D5DD8B026D0FFFF01017551BC
:100418000101761101017711D8B462D075C190F04D
:1004280076C191F077C192F0ACEC10F000019051D8
:10043800000191110001921100019311D8A450D02C
:1004480001016EBF4DD001016E5105E1020E01019F
:100458006D5DD8A045D0FFFF67C122F068C123F0C9
:1004680069C124F0700E256E890E266E400E276E27
:100478004AEC14F0D8B003D00101F70E03D0FFFF07
:100488000101F80EFFFF6D27FF0E6E2301016D516C
:1004980082EC0AF089C067F18AC068F18BC069F103
:1004A80075C122F076C123F077C124F067C125F029
:1004B80068C126F069C127F078EC12F022C06FF10C
:1004C80023C070F124C071F125C072F1000E010142
:1004D800756F000E0101766F000E0101776F34D041
:1004E800FFFF75C190F076C191F077C192F0ACEC46
:1004F80010F090C06FF191C070F192C071F193C08B
:1005080072F175C19FF076C1A0F077C1A1F06FC1FB
:100518002AF070C12BF071C12CF072C12DF01DECC6
:1005280016F02AC0A2F02BC0A3F02CC0A4F079ECDE
:1005380016F09FC075F1A0C076F1A1C077F1000E4A
:1005480001016E6F000E6D6FFFFF010E0101786FE4
:10055800FFFF0A0E01017819D8B422D001017851A1
:10056800040D0B0EF324F66E7E0EF420F76E0900D0
:10057800FFFFF55001016F5D0900FFFFF550010114
:1005880070590900FFFFF550010171590900FFFF7B
:10059800F55001017259D8A003D00101782BD8D7A2
:1005A800FFFF78C1ACF00001AD6BACBFAD07010136
:1005B80065510001AC27010166510001AD2301011D
:1005C8006D510001AC2701016E510001AD230001FE
:1005D800AC5101016B5F0001AD5101016C5B010180
:1005E800655101016611D8B404D001016B07D8A088
:1005F8006C07FFFF030E010173150001AC6F000EBD
:10060800010174150001AD6F0001AC510001AD117D
:10061800D8B404D001016B07D8A06C07FFFF010113
:1006280073A542D0030E010173150001AC6F000ED3
:10063800010174150001AD6F0001AC510001AD114D
:10064800D8B418D0A5C0D9FFA6C0DAFF2D0EDF6E2A
:100658000001A54BA62B0ED0FFFFA5C0D9FFA6C051
:10066800DAFF300EDF6E0001A54BA62B01016B07E8
:10067800D8A06C07FFFF01016CBF8DD001016C5140
:10068800EBE101016B05D8A086D0E6D7FFFFA5C036
:10069800D9FFA6C0DAFF200EDF6E0001A54BA62BFE
:1006A80001016B07D8A06C07FFFF01016CBF07D0E1
:1006B80001016C51EBE101016B05D8B0E7D7FFFFF1
:1006C800030E010173150001AC6F000E01017415D2
:1006D8000001AD6F0001AC510001AD11D8B45BD081
:1006E800A5C0D9FFA6C0DAFF2D0E52D0FFFF00012A
:1006F800A54BA62B50D0FFFF6FC122F070C123F08D
:1007080071C124F072C125F001017851040D0B0E5E
:10071800F324F66E7E0EF420F76E0900FFFFF5CF86
:1007280026F00900FFFFF5CF27F00900FFFFF5CFFE
:1007380028F00A00FFFFF5CF29F0E4EC14F022C0FE
:1007480067F123C068F124C069F125C06AF167C167
:100758002FF068C130F069C131F06AC132F00A0E79
:10076800336E000E346E000E356E000E366EAAEC37
:1007780015F02FC067F130C068F131C069F132C09F
:100788006AF101016751300FA5C0D9FFA6C0DAFF91
:10079800FFFFDF6EABD7FFFF010178070101782962
:1007A800D8B40FD0A8D7FFFFA5C0D9FFA6C0DAFFDD
:1007B800300EDF6E0001A54BA62B01016D07D8A0F6
:1007C8006E07FFFF01016EBF07D001016E51EBE11B
:1007D80001016D05D8B0E7D7FFFF010166BF0CD056
:1007E8000101665105E1090E0101655DD8A004D03B
:1007F800080E0101786F03D0FFFF65C178F1FFFF94
:10080800010178510101655F000E010178BFFF0EFB
:100818000101665B010178510101D8B409D0A5C076
:10082800D9FFA6C0DAFF2E0EDF6E0001A54BA62B5E
:10083800FFFF0101785182EC0AF089C05FF18AC09C
:1008480060F18BC061F175C139F076C13AF077C1BA
:100858003BF05FC136F060C137F061C138F0E0ECC1
:1008680011F036C090F037C091F038C092F0ACEC7F
:1008780010F090C06FF191C070F192C071F193C007
:1008880072F17CD0FFFF6FC122F070C123F071C1FB
:1008980024F072C125F001017851040D0B0EF324E8
:1008A800F66E7E0EF420F76E0900FFFFF5CF26F0F6
:1008B8000900FFFFF5CF27F00900FFFFF5CF28F06B
:1008C8000A00FFFFF5CF29F0E4EC14F022C067F12D
:1008D80023C068F124C069F125C06AF167C12FF00F
:1008E80068C130F069C131F06AC132F00A0E336E66
:1008F800000E346E000E356E000E366EAAEC15F042
:100908002FC067F130C068F131C069F132C06AF1B7
:1009180001016751300FA5C0D9FFA6C0DAFFDF6E0D
:100928000001A54BA62B6FC12FF070C130F071C12B
:1009380031F072C132F001017851040D0B0EF3242D
:10094800F66E7E0EF420F76E0900FFFFF5CF33F048
:100958000900FFFFF5CF34F00900FFFFF5CF35F0B0
:100968000A00FFFFF5CF36F0AAEC15F02FC06FF1A3
:1009780030C070F131C071F132C072F1FFFF010176
:10098800780701017829D8B40FD07CD7FFFFA5C01C
:10099800D9FFA6C0DAFF300EDF6E0001A54BA62BEB
:1009A80001016507D8A06607FFFF01016551010134
:1009B8006611D8B4F3D1EAD7FFFF010173BF23D082
:1009C80063C1D9FF64C1DAFFDECF6FF1DDCF70F10B
:1009D8000101000E70BFFF0E716F726F020E0101F0
:1009E8006327000E6423010172AF7BD0030E01015F
:1009F80073130101721F711F701F6F6D000E70233A
:100A0800712372236ED0FFFF63C1D9FF64C1DAFF7F
:100A1800DECFACF0DDCFADF0ACC06FF1ADC070F1A2
:100A28000101716B726B020E01016327000E6423D2
:100A380058D0FFFF010E0101786FFFFF0A0E010178
:100A48007819D8B458D001017851040D0B0EF3244D
:100A5800F66E7E0EF420F76E0900FFFFF5500101D7
:100A68006F5D0900FFFFF550010170590900FFFF94
:100A7800F550010171590900FFFFF5500101725944
:100A8800D8A039D00101782BD8D7FFFF010E01017A
:100A9800786FFFFF080E01017819D8B42CD0010136
:100AA8007851040D810EF324F66E7E0EF420F76E55
:100AB8000900FFFFF55001016F5D0900FFFFF550C8
:100AC800010170590900FFFFF55001017159090032
:100AD800FFFFF55001017259D8A00DD00101782B04
:100AE800D8D7FFFF01017351800B000AD8B4A1D7F2
:100AF800800AD8B4CAD7FFFF01016B5101016C11FC
:100B0800D8B414D0030E010173150001AC6F000EA8
:100B1800010174150001AD6F0001AC510001AD1168
:100B2800D8B404D001016B07D8A06C07FFFF800E72
:100B3800010178BF7F0E0001AC6F01016B5101010B
:100B4800785D01016C51800A0001AC59D8B00BD016
:100B58000101785101016B5F000E010178BFFF0EA2
:100B680001016C5B06D0FFFF000E01016C6F000EE7
:100B78006B6FFFFF010173A52ED0030E01017315E2
:100B88000001AC6F000E010174150001AD6F00018A
:100B9800AC510001AD11D8B409D0A5C0D9FFA6C089
:100BA800DAFF2D0EDF6E0001A54BA62BFFFF01011A
:100BB8006B5101016C11D8B443D0A5C0D9FFA6C0B0
:100BC800DAFF300EDF6E0001A54BA62B01016B0783
:100BD800D8A06C07EBD7FFFF01016B5101016C1125
:100BE800D8B414D0FFFFA5C0D9FFA6C0DAFF200EE5
:100BF800DF6E0001A54BA62B01016B07D8A06C077F
:100C080001016B5101016C11D8A4ECD7FFFF030E51
:100C1800010173150001AC6F000E0101741500018C
:100C2800AD6F0001AC510001AD11D8B409D0A5C019
:100C3800D9FFA6C0DAFF2D0EDF6E0001A54BA62B4B
:100C4800FFFF010178510101656F666B65BF66079B
:100C580099D0FFFF65C1ACF066C1ADF00001D89036
:100C6800AC37AD370001D890AC37AD370B0E00016B
:100C7800AC25F66E7E0EAD21F76E0900FFFFF5CFAD
:100C880026F00900FFFFF5CF27F00900FFFFF5CF99
:100C980028F00A00FFFFF5CF29F06FC122F070C1DC
:100CA80023F071C124F072C125F0E4EC14F022C0E5
:100CB8002FF023C030F024C031F025C032F00A0EE6
:100CC800336E000E346E000E356E000E366EAAECD2
:100CD80015F02F50300F0101786F4AD0FFFF6FC118
:100CE80022F070C123F071C124F072C125F065C1F2
:100CF800ACF066C1ADF00001D890AC37AD3700015B
:100D0800D890AC37AD37810E0001AC25F66E7E0E5B
:100D1800AD21F76E0900FFFFF5CF26F00900FFFFB0
:100D2800F5CF27F00900FFFFF5CF28F00A00FFFFF5
:100D3800F5CF29F0E4EC14F022500F0B0101626F9B
:100D480001016251010DCB0EF324F66E7F0EF420E3
:100D5800F76E0800FFFFF5CF78F10AD0FFFF010119
:100D68007351800B000AD8B474D7800AD8B4B6D7A8
:100D7800FFFFA5C0D9FFA6C0DAFF78C1DFFF0001D9
:100D8800A54BA62BFFFF01016507D8A06607010147
:100D98006529E4E101016629D8A4E0D7FFFFA7C0CF
:100DA800F6FFA8C0F7FF0001A74BA82B0800FFFF1C
:100DB800F5CF78F101017851D8A460EF00F0FFFF7A
:100DC800A5C0D9FFA6C0DAFF000EDF6E1200FFFF34
:100DD800FFFF3EEC17F085EC13F0AB0E226E7E0E93
:100DE800236E6EEC15F0FFFF44044510D8A40AD01A
:100DF80046044710D8A406D0000E236E0A0E226EB1
:100E0800C1EC16F0FFFF44044510D8A40AD04650A0
:100E18004710D8A406D0000E236E050E226EC1EC32
:100E280016F0FFFF40044110D8A422D1460E226ECE
:100E3800010E236E6EEC15F00A0E54185510D8A446
:100E48001DD0460E226E010E236E680E246E7F0E94
:100E5800256E4FEC16F022C03CF023C03DF0460E44
:100E6800226E010E236E730E246E7F0E256E4FECDC
:100E780016F022C057F023C058F07ED0FFFF090EAD
:100E880054185510D8A42BD0460E226E010E236E8E
:100E98007E0E246E7F0E256E4FEC16F022C0EAF00F
:100EA80023C0EBF0460E226E010E236E880E246ED0
:100EB8007F0E256E4FEC16F022C0ECF023C0EDF04B
:100EC800460E226E010E236E920E246E7F0E256E44
:100ED8004FEC16F022C0EEF023C0EFF04DD0FFFF2C
:100EE8000E0E54185510D8A42BD0460E226E010EA3
:100EF800236E3B0E246E7F0E256E4FEC16F022C03B
:100F0800F0F023C0F1F0460E226E010E236E4A0E59
:100F1800246E7F0E256E4FEC16F022C0F2F023C02F
:100F2800F3F0460E226E010E236E590E246E7F0ECC
:100F3800256E4FEC16F022C0F4F023C0F5F01CD05B
:100F4800FFFF040E54185510D8A40FD0460E226E79
:100F5800010E236E9C0E246E7F0E256E4FEC16F04C
:100F680022C0E8F023C0E9F007D0FFFF120E226E7E
:100F78007F0E236E6EEC15F0FFFF3C503D10D8B489
:100F880012D057505810D8B40ED0120E226E7F0EC1
:100F9800236E6EEC15F0000E3D6E000E3C6E000EDA
:100FA800586E010E576EFFFF000E436E000E426E24
:100FB800FFFF43BE06D0435010E1190E425CD8B083
:100FC8000CD0FFFF460E4224D96E010E4320DA6E84
:100FD800000EDF6E424A432AEBD7FFFF0001EA51B9
:100FE8000001EB11D8A404D0000E5A6E0A0E596EF7
:100FF800FFFF0001EC510001ED11D8A404D0000E50
:101008005A6E0C0E596EFFFF0001EE510001EF11F0
:10101800D8A404D0000E5A6E140E596EFFFF0001BA
:10102800F0510001F111D8A404D0000E5C6E050E39
:101038005B6EFFFF0001F2510001F311D8A404D048
:10104800000E5C6E0A0E5B6EFFFF0001F45100019A
:10105800F511D8A404D0000E5C6E140E5B6EFFFF71
:10106800000E416E000E406E000E556E000E546E5E
:10107800FFFF0001E8510001E911D8A47ED000F07B
:10108800280E0001A56F010E0001A66FFC0E0001DD
:10109800A76F7F0E0001A86F46C0A9F047C0AAF04D
:1010A80057EC00F0280E226E010E236E6EEC15F040
:1010B80046044710D8A444D0CA0E226E7E0E236E72
:1010C8006EEC15F0280E0001A56F010E0001A66F49
:1010D800EC0E0001A76F7F0E0001A86F59C0A9F0A0
:1010E8005AC0AAF057EC00F0280E226E010E236EAB
:1010F8006EEC15F05BC030F05CC031F0000E336E62
:10110800640E326EF7EC16F030C0E0F031C0E1F05A
:10111800280E0001A56F010E0001A66FB60E000192
:10112800A76F7F0E0001A86FE0C0A9F0E1C0AAF088
:1011380057EC00F0280E226E010E236E6EEC15F0AF
:10114800FFFF46504710D8A412D0E20E226E7E0E42
:10115800236E6EEC15F0280E226E7F0E236E6EEC59
:1011680015F0FA0E226E7E0E236E6EEC15F0FFFF60
:10117800000E0001E96F010EE86FFFFF3C503D10C3
:10118800D8A471D1000E476E010E466E480449106E
:10119800D8A434D00001C84BC92B59500001C81934
:1011A80028E15A500001C919D8A423D0000E316E85
:1011B800000E306E33EC0FF030C0D6F031C0D7F0EF
:1011C800000E316E010E306E33EC0FF030C0D8F0E7
:1011D80031C0D9F0000E316E020E306E33EC0FF0D4
:1011E80030C0DAF031C0DBF0000E0001C96F000E2C
:1011F800C86FFFFF000E496E000E486EFFFF00012A
:10120800E4050001E511D8A42ED10001C24BC32B7F
:101218005B500001C21904E15C500001C319D8A455
:1012280001D1000E396EA00E3A6E400E3B6ED6C04C
:101238002AF0D7C02BF0A2EC16F02AC036F02BC04B
:1012480037F02CC038F0E0EC11F036C089F037C028
:101258008AF038C08BF0000E00018C6F800E000100
:101268008D6F440E00018E6F09EC10F089C0BFF03D
:101278008AC0C0F08BC0C1F0280E0001A56F010E16
:101288000001A66FDC0E0001A76F7F0E0001A86F9A
:10129800BFC0A9F0C0C0AAF0C1C0ABF057EC00F0C5
:1012A800280E226E010E236EDEEC16F0000E436E41
:1012B800000E426EFFFF43BE06D043503FE10A0EC8
:1012C800425CD8B03BD0FFFF425000080001B26F2B
:1012D800090E0001B227E6C0B3F0E7C0B4F0000180
:1012E800B22B05D0FFFFD8900001B337B437FFFF0A
:1012F8000001B22FF7D70001D8510001B317000140
:10130800D9510001B4170001B3510001B411D8A498
:1013180008D0B50E4224D96E000E4320DA6E300E86
:1013280008D0FFFFB50E4224D96E000E4320DA6EB6
:10133800310EFFFFDF6E424A432ABCD7FFFF000E83
:10134800436E000E426EFFFF43BE06D0435015E1C8
:101358000A0E425CD8B011D0FFFFA10E4224F66EEF
:101368007E0E4320F76E0800FFFFF5CFADFFFFFFAD
:10137800ACA2FDD7424A432AE6D7FFFF000E436ED0
:10138800000E426EFFFF43BE06D0435013E10A0E23
:10139800425CD8B00FD0FFFFB50E4224D96E000EC4
:1013A8004320DA6EDF50AD6EFFFFACA2FDD7424A94
:1013B800432AE8D7FFFF000E436E000E426EFFFF80
:1013C80043BE06D0435010E10A0E425CD8B00CD0A0
:1013D800FFFFB50E4224D96E000E4320DA6E000ED0
:1013E800DF6E424A432AEBD7FFFF280E0001A56FA4
:1013F800010E0001A66FA10E0001A76F7F0E00016C
:10140800A86FDAC0A9F0DBC0AAF057EC00F0280EEC
:10141800226E010E236EDEEC16F0000E0001C36F83
:10142800000EC26FFFFF000E0001E56F000EE46FB3
:10143800000E0001CD6F000ECC6F000E4F6E000E37
:101448004E6E000E0001CF6F000ECE6F000E516E73
:10145800000E506E000E0001D16F000ED06F000E0E
:10146800536E000E526EFFFF57505810D8A4BBD4CD
:10147800000E476E000E466EC250C70B1809C26EAA
:1014880048044910D8A4AFD4C284FFFF3E503F108F
:10149800D8B4FBD7280E0001A56F010E0001A66F76
:1014A800FC0E0001A76F7F0E0001A86F4CC0A9F0C9
:1014B8004DC0AAF057EC00F0280E226E010E236EE4
:1014C8006EEC15F0000E3F6E000E3E6E000E496E7B
:1014D800000E486E81AE02D0010E02D0FFFF000E52
:1014E800FFFFFF0A0001B26F0001B233B2338A5026
:1014F8000001B2197F0BB2198A6E75D4FFFF000183
:101508008F6F00018FAF10D100018F6D00018F51D7
:10151800800A120FD8A097D0000E336E030E326ED9
:10152800000E2B6E0A0E2A6E000E256E640E246EB7
:1015380000018F51226E236A22BE23062CEC15F07F
:1015480022C028F023C029F098EC14F0090E2824B2
:10155800306E000E2920316EF7EC16F0330E302471
:10156800F66E7E0E3120F76E0900FFFFF5CF39F0D9
:101578000900FFFFF5CF3AF00A00FFFFF5CF3BF077
:10158800000E2B6E640E2A6E00018F51286E296A98
:1015980028BE290698EC14F0120E2824306E000E8E
:1015A8002920316E000E336E030E326EF7EC16F002
:1015B800330E3024F66E7E0E3120F76E0900FFFFE1
:1015C800F5CF36F00900FFFFF5CF37F00A00FFFF2F
:1015D800F5CF38F0E0EC11F036C08CF037C08DF064
:1015E80038C08EF08CC036F08DC037F08EC038F021
:1015F800000E336E030E326E000E256E0A0E246E38
:1016080000018F51226E236A22BE23062CEC15F0AE
:1016180022C030F023C031F0F7EC16F0330E30243E
:10162800F66E7E0E3120F76E0900FFFFF5CF39F018
:101638000900FFFFF5CF3AF00A00FFFFF5CF3BF0B6
:10164800E0EC11F06AD1FFFF00018F51800A750F9D
:10165800D8A055D0000E2B6E0A0E2A6E00018F51AD
:10166800286E296A28BE290698EC14F0090E282449
:10167800306E000E2920316E000E336E030E326E6E
:10168800F7EC16F0330E3024F66E7E0E3120F76E2E
:101698000900FFFFF5CF36F00900FFFFF5CF37F05F
:1016A8000A00FFFFF5CF38F0000E336E030E326EDE
:1016B800000E256E0A0E246E00018F51226E236AD9
:1016C80022BE23062CEC15F022C030F023C031F0E6
:1016D800F7EC16F0330E3024F66E7E0E3120F76EDE
:1016E8000900FFFFF5CF39F00900FFFFF5CF3AF009
:1016F8000A00FFFFF5CF3BF0E0EC11F00ED1FFFF41
:1017080000018F51030D330EF324F66E7E0EF42084
:10171800F76E0900FFFFF5CF89F00900FFFFF5CF4D
:101728008AF00A00FFFF15D1FFFF00018F51800AE0
:10173800120FD8A097D0000E336E030E326E000E33
:101748002B6E0A0E2A6E000E256E640E246E0001A2
:101758008F51226E236A22BE23062CEC15F022C07C
:1017680028F023C029F098EC14F0090E2824306ED4
:10177800000E2920316EF7EC16F05A0E3024F66E62
:101788007E0E3120F76E0900FFFFF5CF39F0090012
:10179800FFFFF5CF3AF00A00FFFFF5CF3BF0000E50
:1017A8002B6E640E2A6E00018F51286E296A28BE9E
:1017B800290698EC14F0120E2824306E000E292009
:1017C800316E000E336E030E326EF7EC16F05A0EC1
:1017D8003024F66E7E0E3120F76E0900FFFFF5CF3C
:1017E80036F00900FFFFF5CF37F00A00FFFFF5CF0D
:1017F80038F0E0EC11F036C08CF037C08DF038C00E
:101808008EF08CC036F08DC037F08EC038F0000EE8
:10181800336E030E326E000E256E0A0E246E000122
:101828008F51226E236A22BE23062CEC15F022C0AB
:1018380030F023C031F0F7EC16F05A0E3024F66E73
:101848007E0E3120F76E0900FFFFF5CF39F0090051
:10185800FFFFF5CF3AF00A00FFFFF5CF3BF0E0ECD1
:1018680011F05BD0FFFF00018F51800A750FD8A0DF
:101878005CD0000E2B6E0A0E2A6E00018F51286E66
:10188800296A28BE290698EC14F0090E2824306E1F
:10189800000E2920316E000E336E030E326EF7EC07
:1018A80016F05A0E3024F66E7E0E3120F76E0900BF
:1018B800FFFFF5CF36F00900FFFFF5CF37F00A003C
:1018C800FFFFF5CF38F0000E336E030E326E000EB8
:1018D800256E0A0E246E00018F51226E236A22BEE5
:1018E80023062CEC15F022C030F023C031F0F7ECC1
:1018F80016F05A0E3024F66E7E0E3120F76E09006F
:10190800FFFFF5CF39F00900FFFFF5CF3AF00A00E5
:10191800FFFFF5CF3BF0E0EC11F0FFFF36C089F098
:1019280037C08AF038C08BF017D0FFFF00018F5105
:10193800030D5A0EF324F66E7E0EF420F76E09009E
:10194800FFFFF5CF89F00900FFFFF5CF8AF00A0005
:10195800FFFFFFFFF5CF8BF0FFFF1200FFFFFFFF38
:1019680095C099F000019A6B9B6B000194350001BA
:10197800993701E39A810001995100019E6F98C03F
:1019880099F000019A6B9B6B00019735000199371C
:1019980001E39A810001995100019D6F00019E5158
:1019A8000001D8B411D000019D5100019E5DD8B04E
:1019B80013D000019E51000800019D250001996F78
:1019C800180E0001996508D0FFFF96C093F097C0E4
:1019D80094F098C095F008D1FFFF00019D510001D7
:1019E800D8B411D000019E5100019D5DD8B013D02C
:1019F80000019D51000800019E250001996F180EF5
:101A08000001996508D0FFFF93C093F094C094F04B
:101A180095C095F0E9D0FFFF060E00019C6F00010C
:101A280095AF02D000019C8FFFFF000198AF02D054
:101A380000019C8DFFFF0001948FFF0E000193179A
:101A4800FF0E00019417000E000195170001978FF3
:101A5800FF0E00019617FF0E00019717000E0001F8
:101A6800981700019D5100019E5DD8B028D0FFFF56
:101A78000001D89096379737983700019D070001E5
:101A88009E5100019D19D8B412D000019C079CC03A
:101A980099F0070E00019917D8B409D0E8D7FFFFCD
:101AA8000001D89095339433933300019E2BFFFFA8
:101AB80000019D5100019E19D8B42FD0F0D7FFFF27
:101AC80000019E5100019D5DD8B027D0FFFF0001A5
:101AD800D89093379437953700019E0700019E519F
:101AE80000019D19D8B412D000019C079CC099F040
:101AF800070E00019917D8B409D0E8D7FFFF0001F5
:101B0800D89098339733963300019D2BFFFF00013F
:101B18009D5100019E19D8A4F1D7FFFF00019CAF89
:101B280012D0FF0E0001931BFF0E0001941BFF0E45
:101B38000001951B010E00019327000E000194235C
:101B4800000E00019523FFFF00019CAD12D0FF0E8F
:101B58000001961BFF0E0001971BFF0E0001981B4A
:101B6800010E00019627000E00019723000E0001C8
:101B78009823FFFF000E00019C6F000193510001A4
:101B88009627000194510001972300019551000107
:101B98009823000198AF15D0FF0E0001961BFF0E89
:101BA8000001971BFF0E0001981B010E00019627EC
:101BB800000E00019723000E00019823010E00017A
:101BC8009C6FFFFF96C022F097C023F098C024F0C6
:101BD8009EC025F09CC026F0E8EC13F022C093F0DC
:101BE80023C094F024C095F0FFFF1200FFFFFFFF11
:101BF8000001926F6D0E00019265A2D0000E336E47
:101C0800030E326E000E2B6E0A0E2A6E000E256E23
:101C1800640E246E92C022F0236A2CEC15F022C0C8
:101C280028F023C029F098EC14F0090E2824306E0F
:101C3800000E2920316EF7EC16F0330E3024F66EC4
:101C48007E0E3120F76E0900FFFFF5CF39F009004D
:101C5800FFFFF5CF3AF00A00FFFFF5CF3BF0000E8B
:101C68002B6E640E2A6E92C028F0296A98EC14F044
:101C7800120E2824306E000E2920316E000E336EAD
:101C8800030E326EF7EC16F0330E3024F66E7E0E2D
:101C98003120F76E0900FFFFF5CF36F00900FFFF8E
:101CA800F5CF37F00A00FFFFF5CF38F0E0EC11F080
:101CB80036C08FF037C090F038C091F0000E336E08
:101CC800030E326E000E256E0A0E246E92C022F0AC
:101CD800236A2CEC15F022C030F023C031F0F7EC69
:101CE80016F0330E3024F66E7E0E3120F76E0900A2
:101CF800FFFFF5CF39F00900FFFFF5CF3AF00A00F2
:101D0800FFFFF5CF3BF08FC036F090C037F091C0A1
:101D180038F0E0EC11F036C08CF037C08DF038C0E8
:101D28008EF08CC036F08DC037F08EC038F0000EC3
:101D3800396E000E3A6E3F0E3B6EE0EC11F086D025
:101D4800FFFF0A0E0001926563D0000E336E030E8A
:101D5800326E000E256E0A0E246E92C022F0236A9F
:101D68002CEC15F022C030F023C031F0F7EC16F05F
:101D7800330E3024F66E7E0E3120F76E0900FFFF19
:101D8800F5CF39F00900FFFFF5CF3AF00A00FFFF61
:101D9800F5CF3BF0000E2B6E0A0E2A6E92C028F08B
:101DA800296A98EC14F0090E2824306E000E2920B8
:101DB800316E000E336E030E326EF7EC16F0330EF2
:101DC8003024F66E7E0E3120F76E0900FFFFF5CF46
:101DD80036F00900FFFFF5CF37F00A00FFFFF5CF17
:101DE80038F0E0EC11F036C08FF037C090F038C012
:101DF80091F08FC036F090C037F091C038F0000EE7
:101E0800396E000E3A6E3F0E3B6EE0EC11F01ED0BC
:101E1800FFFF00019251030D330EF324F66E7E0E80
:101E2800F420F76E0900FFFFF5CF36F00900FFFF39
:101E3800F5CF37F00A00FFFFF5CF38F0000E396E06
:101E4800000E3A6E3F0E3B6EE0EC11F0FFFF36C01D
:101E580089F037C08AF038C08BF01200FFFFFFFF0F
:101E680030503110D8A441D0C296C298C29A000E00
:101E7800336E000E326E33BE07D033500EE1FFFFD3
:101E8800140E325CD8B009D0FFFF00F0324A332A72
:101E980033BEFAD7335001E1F2D7FFFFC28402D034
:101EA800FFFF00F0FFFF3E503F10D8B4F9D7000104
:101EB800CC4BCD2B4C504E244E6E4D504F204F6E78
:101EC800000E4D6E000E4C6E4EC028F04FC029F02B
:101ED800CCC02AF0CDC02BF098EC14F088D0FFFFCE
:101EE800000E3F6E000E3E6E88D0FFFF30043110AA
:101EF800D8A43CD0C250C70B0809C26E000E356E7C
:101F0800000E346E35BE07D035500EE1FFFF140EBB
:101F1800345CD8B009D0FFFF00F0344A352A35BE0A
:101F2800FAD7355001E1F2D7FFFFC28402D0FFFF94
:101F380000F0FFFF3E503F10D8B4F9D70001CE4B58
:101F4800CF2B4C505024506E4D505120516E000EE6
:101F58004D6E000E4C6E50C028F051C029F0CEC016
:101F68002AF0CFC02BF098EC14F041D0FFFF020EFE
:101F780030183110D8A446D0C250C70B1009C26E11
:101F8800000E376E000E366E37BE07D037500EE1A2
:101F9800FFFF140E365CD8B009D0FFFF00F0364AB8
:101FA800372A37BEFAD7375001E1F2D7FFFFC2848C
:101FB80002D0FFFF00F0FFFF3E503F10D8B4F9D722
:101FC8000001D04BD12B4C505224526E4D5053200F
:101FD800536E000E4D6E000E4C6E52C028F053C06A
:101FE80029F0D0C02AF0D1C02BF098EC14F0FFFFF4
:101FF80028C04AF029C04BF072D7FFFF4AC030F022
:102008004BC031F0FFFF1200FFFFFFFF8BC08FF0C6
:102018000001906B916B00018A3500018F3701E355
:10202800908100018F510001966F00019651D8B43C
:1020380013D08EC08FF00001906B916B00018D352D
:1020480000018F3701E3908100018F510001976FE4
:1020580000019751D8A40BD0FFFF000E0001896F33
:10206800000E00018A6F000E00018B6F6ED0FFFF1B
:10207800000E0001936F000E0001946F000E000126
:10208800956F00019751890F0001965F8BC097F0FB
:1020980000018E510001971B800E00019717000167
:1020A8008A8FFF0E00018917FF0E00018A17000EA4
:1020B80000018B1700018D8FFF0E00018C17FF0E9A
:1020C80000018D17000E00018E17180E0001926F87
:1020D800FFFF0001D89093379437953700018C5152
:1020E8000001895D00018D5100018A5900018E515E
:1020F80000018B59D8A00ED000018C510001895FD6
:1021080000018D5100018A5B00018E5100018B5B3B
:1021180000019381FFFF0001D89089378A378B37F8
:102128000001922FD5D793C022F094C023F095C018
:1021380024F096C025F097C026F0E8EC13F022C0F2
:1021480089F023C08AF024C08BF0FFFF1200FFFF44
:10215800FFFF92C094F00001956B966B00019135DA
:102168000001943701E395810001945100019E6FAD
:1021780000019E51D8B451D0170E0001946F90C041
:1021880095F091C096F092C097F000019429000153
:10219800986F06D0FFFF0001D89097339633953398
:1021A800FFFF0001982FF6D7000195510001996FA4
:1021B8000001918FFF0E00019017FF0E000191178B
:1021C800000E000192170001905100019A6F000162
:1021D800915100019B6F0001925100019C6F000119
:1021E8009D6B8E0E00019E5F00019EAF11D0000115
:1021F8009E51800A8F0FD8A010D0FFFF0001D89001
:102208009D339C339B339A3300019E3FF6D71FD0F2
:10221800FFFF170E00019E6514D0FFFF000E00019E
:10222800906F000E916F000E926F000E936F27D083
:10223800FFFF0001D8909A379B379C379D370001E4
:102248009E07FFFF00019E510001D8A4F1D7FFFFB0
:10225800000199510001D8B409D000019D1F9C1FAD
:102268009B1F9A6D000E9B239C239D23FFFF9AC002
:1022780090F09BC091F09CC092F09DC093F0FFFF3E
:102288001200FFFFFFFFE9CF05F0EACF06F0E1CF2C
:1022980007F0E2CF08F0D9CF09F0DACF0AF0F3CF90
:1022A8000BF0F4CF0CF0F6CF0DF0F7CF0EF0F8CF1F
:1022B8000FF0F5CF10F09EAC0FD000F0C450026EB6
:1022C800016AC35001244C6E000E02204D6E000EB0
:1022D8003F6E010E3E6E9E9CFFFF9EAA26D0AECF9B
:1022E80056F00D0E5618D8B410D0460E0001D4255D
:1022F800D96E010E0001D521DA6E56C0DFFF00014C
:10230800D44BD52B544A552A0ED0FFFF0D0E561824
:10231800D8A409D0000E0001D56F000ED46F000EAE
:10232800416E010E406EFFFF9E9AFFFFA1A209D0E9
:10233800000E456E010E446E0B0EB36EDC0EB26ECF
:10234800A192FFFF9EA00BD09E9000F0000E00010E
:10235800E56F010EE46F0B0ECF6EDC0ECE6EFFFF45
:10236800F2A40AD0F294000E496E010E486E00F0F5
:10237800FF0ED76EB20ED66EFFFF10C0F5FF0FC06E
:10238800F8FF0EC0F7FF0DC0F6FF0CC0F4FF0BC03E
:10239800F3FF0AC0DAFF09C0D9FF08C0E2FF07C08F
:1023A800E1FF06C0EAFF05C0E9FF04C0FBFF03C068
:1023B800FAFF5D921100FFFFFFFF38C080F00001B7
:1023C800816B826B37340001803701E38181000122
:1023D80080510001836F00018351D8B412D03BC0F3
:1023E80080F00001816B826B3A340001803701E391
:1023F8008181000180510001886F00018851D8A4B3
:1024080008D0FFFF000E366E000E376E000E386ED5
:1024180068D0FFFF000188517B0F0001832738C077
:1024280088F03B500001881B800E00018817378E0A
:102438003A8EFF0E3916FF0E3A16000E3B16000EA6
:102448000001846F000E0001856F000E0001866F89
:10245800070E0001876FFFFF36A009D03950000131
:1024680084273A50000185233B5000018623FFFF53
:10247800D890383237323632D89039363A363B36F9
:102488000001872FE8D7090E0001876FFFFF36A0EC
:1024980009D03950000184273A50000185233B5068
:1024A80000018623FFFFD8903832373236320001D8
:1024B800D8908633853384330001872FE7D784C0CB
:1024C80022F085C023F086C024F083C025F088C0A0
:1024D80026F0E8EC13F022C036F023C037F024C011
:1024E80038F0FFFF1200FFFFFFFF24C028F0296A21
:1024F8002A6A2334283601E329802850306E305068
:10250800D8B45AD027C028F0296A2A6A263428362F
:1025180001E3298028502F6E2F50D8B44DD0238E38
:10252800FF0E2216FF0E2316000E2416268EFF0E0F
:102538002516FF0E2616000E2716000E2B6E000E0F
:102548002C6E000E2D6E000E2E6E7F0E305E2F50FC
:10255800980F305E180E2F6EFFFFD8902B362C3652
:102568002D362E362550225C2650235827502458C5
:10257800D8A007D02550225E2650235A2750245A27
:102588002B80FFFFD8902236233624362F2EE4D70F
:1025980030AE0ED03050800A970FD8A00DD0FFFF74
:1025A800D8902E322D322C322B32303EF8D719D01B
:1025B800FFFF170E306411D0FFFF000E226E000ED1
:1025C800236E000E246E000E256E14D0FFFFD890E7
:1025D8002B362C362D362E363006FFFF3050D8A439
:1025E800F5D7FFFF2BC022F02CC023F02DC024F01C
:1025F8002EC025F0FFFF1200FFFFFFFF2434253413
:102608002D6E2D50D8B45CD0273428342C6E2C5025
:10261800D8B456D0248EFF0E2216FF0E2316FF0EB6
:102628002416000E2516278EFF0E2516FF0E2616D9
:10263800FF0E2716000E2816000E286E000E296EB3
:10264800000E2A6E000E2B6E7F0E2D5E2C50A00FF2
:102658002D5E200E2C6EFFFFD890283629362A369C
:102668002B362550225C26502358275024582850B2
:102678002558D8A009D02550225E2650235A275025
:10268800245A2850255A2880FFFFD890223623360E
:10269800243625362C2EDFD72DAE0ED02D50800AAD
:1026A8009F0FD8A00DD0FFFFD8902B322A322932A5
:1026B80028322D3EF8D719D0FFFF1F0E2D6411D0F8
:1026C800FFFF000E226E000E236E000E246E000E19
:1026D800256E14D0FFFFD890283629362A362B3697
:1026E8002D06FFFF2D50D8A4F5D7FFFF28C022F0F4
:1026F80029C023F02AC024F02BC025F0FFFF1200C8
:10270800FFFFFFFF000E806E000E816E000E826ECE
:102718009280928292849286939E948E949C0A0EC2
:10272800AF6EAB8EAC98AC84AC8AAB889D8A9F8A1E
:10273800D59CD59AD598D596D550F80B0509D56E60
:10274800F184F28AD58EFF0ED76EB20ED66ECD8E7C
:10275800300ECD12CD92CD84CD809D809F800B0E02
:10276800CF6EDC0ECE6EA282A082B18EB192B18AFB
:10277800B188B180FD0EB36E8F0EB26EC18EC19C52
:10278800C2503F0B8009C26EC280D08EF28EF28C8E
:102798009E9C9F8C9D8CC150F00B0209C16E000E4F
:1027A800236E000E226EFFFF23BE06D0235009E1E0
:1027B800140E225CD8B005D0FFFF00F0224A232A6D
:1027C800F2D7FFFF1200FFFFFFFF2550D8B405D056
:1027D800225023102410D8A40ED0FFFF000E226E22
:1027E800000E236E000E246E4ED0FFFF252AD890CF
:1027F800243223322232FFFF000E2214276E000EED
:102808002314286EFE0E2414296E27502810291030
:10281800D8B40DD0EAD7FFFF252A010E2226000ED4
:102828002322000E2422D890243223322232FFFFA2
:10283800000E2214276E000E2314286EFF0E241497
:10284800296E275028102910D8B407D0E4D7FFFFE5
:102858002506D890223623362436FFFF23BE03D020
:10286800020E2560F4D7FFFF25A0239ED8902532BD
:10287800255024122650D8A4248E22C022F023C02A
:1028880023F024C024F0FFFF1200FFFFFFFF24AE57
:1028980016D022C028F023C029F024C02AF0281E10
:1028A800291E2A1E282A000E29222A22000E282440
:1028B800226E000E2920236E800E2A20246EFFFF30
:1028C80027AE16D025C028F026C029F027C02AF048
:1028D800281E291E2A1E282A000E29222A22000E16
:1028E8002824256E000E2920266E800E2A20276EA9
:1028F800FFFF000E221A000E231A800E241A000E63
:10290800251A000E261A800E271A2550225C2650FA
:10291800235827502458D8B002D0D89002D0FFFFAF
:10292800D880FFFF1200FFFFFFFF000E2D6E2BAEB9
:1029380006D02A6C2B1ED8B02B2A010E2D6EFFFF55
:1029480029AE06D0286C291ED8B0292A010E2D1AC6
:10295800FFFF000E2F6E000E2E6E2A502B10D8B4DB
:1029680020D0010E2C6E05D0FFFFD8902A362B36CA
:102978002C2AFFFF2BAEF8D7FFFFD8902E362F3624
:102988002A50285C2B502958D8A005D02A50285EF8
:102998002B50295A2E80FFFFD8902B322A322C2E0A
:1029A800EBD7FFFF2D50D8B404D02E6C2F1ED8B013
:1029B8002F2AFFFF2EC028F02FC029F01200FFFF9A
:1029C800FFFF000E2A6E000E2B6E000E2C6E000EFE
:1029D8002D6E2650271028102910D8B42ED0010E9D
:1029E8002E6E07D0FFFFD890263627362836293690
:1029F8002E2AFFFF29AEF6D7FFFFD8902A362B36AE
:102A08002C362D362650225C27502358285024581F
:102A180029502558D8A009D02650225E2750235A7D
:102A28002850245A2950255A2A80FFFFD890293245
:102A38002832273226322E2EDFD7FFFF2AC022F077
:102A48002BC023F02CC024F02DC025F01200FFFF6E
:102A5800FFFF000E276E23AE06D0226C231ED8B0CF
:102A6800232A010E276EFFFF25AE04D0246C251EF5
:102A7800D8B0252AFFFF24502510D8B41CD0010E49
:102A8800266E05D0FFFFD89024362536262AFFFF6C
:102A980025AEF8D7FFFF2450225C25502358D8A034
:102AA80004D02450225E2550235AFFFFD8902532A7
:102AB8002432262EEFD7FFFF2750D8B404D0226C3B
:102AC800231ED8B0232AFFFF22C022F023C023F000
:102AD8001200FFFFFFFF18D0FFFF22C0F6FF23C040
:102AE800F7FFF86A050EF76404D00800FFFFF550F9
:102AF80005D0F6CFE9FFF7CFEAFFEF50AD6EFFFF45
:102B0800ACA2FDD7224A232AFFFF22C0F6FF23C02A
:102B1800F7FFF86A050EF76404D00800FFFFF550C8
:102B280005D0F6CFE9FFF7CFEAFFEF500009D8A4A8
:102B3800D3D70A0EAD6EFFFFACA2FDD70D0EAD6E5A
:102B4800FFFFACB21200FFFFFBD7FFFFFFFF3350C0
:102B5800341035103610D8B428D0010E376E07D08F
:102B6800FFFFD8903336343635363636372AFFFFEE
:102B780036AEF6D7FFFF33502F5C345030583550FF
:102B8800315836503258D8A008D033502F5E3450C0
:102B9800305A3550315A3650325AFFFFD8903632B3
:102BA800353234323332372EE5D7FFFF2FC02FF0BE
:102BB80030C030F031C031F032C032F01200FFFFC7
:102BC800660EF66E2E0EF76E000EF86E00EEE6F04C
:102BD80010EE10F00900F5CFEEFFE550E150FAE1F4
:102BE800760EF66E2E0EF76E000EF86E00EE57F0AB
:102BF80010EE06F00900F5CFEEFFE550E150FAE1DE
:102C080001EE00F05F0EEE6AE806FDE100EEB5F0B9
:102C1800310EEE6AE806FDE100EE3CF01B0EEE6AAE
:102C2800E806FDE15D905D92000EF86E0001ECEFA4
:102C380006F0FFFF8E0E326E07D0FFFFD8902D32C0
:102C48002C322B322A32322AFFFF000E2A142E6E23
:102C5800000E2B142F6E000E2C14306EFF0E2D1448
:102C6800316E2E502F1030103110D8A4E6D72AC05C
:102C780022F02BC023F02CC024F032C025F0000E27
:102C8800266EE8EC13F022C02AF023C02BF024C0F3
:102C98002CF01200FFFFFFFF05D0FFFF224A232A76
:102CA800244A252AFFFF22C0D9FF23C0DAFFDF50BC
:102CB800266E24C0F6FF25C0F7FF0800FFFFF55079
:102CC80000082624276E2750D8A407D022C0D9FF91
:102CD80023C0DAFFDF50D8A4E0D7FFFF2750226EC9
:102CE800236A22BE23061200FFFFFFFF0001A25144
:102CF8000001A3110001A411D8B409D0000E0001ED
:102D0800A21B000E0001A31B800E0001A41BFFFFE5
:102D18009FC093F0A0C094F0A1C095F0A2C096F017
:102D2800A3C097F0A4C098F0B3EC0CF093C09FF048
:102D380094C0A0F095C0A1F01200FFFFFFFF000EA5
:102D48002D6E2BAE06D02A6C2B1ED8B02B2A010E66
:102D58002D6EFFFF2AC022F02BC023F0246A8E0EAE
:102D6800256E2DC026F0E8EC13F022C02AF023C00F
:102D78002BF024C02CF01200FFFFFFFF0001C64B10
:102D8800C72B22500001C65D0001C751800A246E7E
:102D98002350800A2458D8A006D000F0000E000165
:102DA800C76F000EC66FFFFF000E456E000E446E23
:102DB8001200FFFFFFFF0CD0FFFF22C0D9FF23C086
:102DC800DAFFDF50AD6EFFFFACA2FDD7224A232AFF
:102DD800FFFF22C0D9FF23C0DAFFDF50D8B41200AA
:102DE800FFFFEAD7FFFFFFFF30503202F3CF34F086
:102DF800F4CF35F030503302F350352631503202DB
:102E0800F350352634C030F035C031F01200FFFFE2
:102E1800FFFF225023102410D8B406D0000E221A27
:102E2800000E231A800E241AFFFF22C022F023C0AE
:102E380023F024C024F01200FFFFFFFF246E000ED1
:102E4800236E3A0E246005D02F0E246402D0010EA2
:102E5800236EFFFF23C022F022301200FFFF010083
:102E68000100010001000100010001000100010052
:0C2E78000A000500FFFF1200FFFFFFFF33
:107E0A0000010000000A00000064000000E803000E
:107E1A000010270000A086010040420F00809698BB
:107E2A000000E1F50500CA9A3B00803FCDCC3DD762
:107E3A00233C12833AB7D138C62737388635C0D69D
:107E4A0033CC2B32708930E7DB2EE53C1E42A20D83
:107E5A0000803F00204100C842007A44401C46503E
:107E6A00C34724744997184BBCBE4C6B6E4E03151E
:107E7A005079AD60F3497101000000100000000064
:107E8A0001000000100000000001000000100000C6
:107E9A000000010000001063616E616C2032203A1C
:107EAA00004249454E56454E49444F2041204C41D7
:107EBA0020434F4E56455253494F4E2041444300AA
:107ECA004D6F646F206465206D7565737472656F9C
:107EDA00206E6F726D616C004D6F646F2064652057
:107EEA006D7565737472656F2072617069646F0075
:107EFA0076697375616C697A6163696F6E204E4F3A
:107F0A002041504C49434100434F4D414E444F207C
:107F1A004E4F205245434F4E4F4349444F004D75F3
:107F2A0065737472656F204E4F2041504C4943412E
:107F3A000056495355414C495A4143494F4E310025
:107F4A0056495355414C495A4143494F4E320056BE
:107F5A00495355414C495A4143494F4E33004D4FBD
:107F6A00444F4E4F524D414C004D4F444F52415099
:107F7A0049444F004D5545535452454F31004D55D4
:107F8A0045535452454F32004D5545535452454F6F
:107F9A003300494E464F00202063616E616C2033E6
:107FAA003A203078253034582E0A0D0076697375D8
:107FBA00616C697A6163696F6E202564206D732E26
:107FCA00003031323334353637383941424344454B
:107FDA00460063616E616C20313A20256620562086
:107FEA0020006D7565737472656F202564206D734A
:067FFA002E0025640000CA
:020000040020DA
:08000000FFFFFFFFFFFFFFFF00
:020000040030CA
:0E000000FF220D0EFF0080FF0FC00FE00F402B
:00000001FF
