:020000040000FA
:0400000080311B2808
:100008007E1480312000131E0A280B28192822008C
:100018008C1C0F28102815282000131222008C1081
:1000280019282000131222008C147E100900803138
:100038001D287E10200080313C2822008E018D0171
:100048008C0121008C1023008C1424008C102100BA
:100058000C1123008C1424000C118B170B17210092
:100068009F171F141F129F12131620001312080047
:1000780080314720803180312120803122000C15C9
:10008800422880311B28033021009B041B08873934
:0600980038389B0008004F
:020000040001F9
:04000E00E7C97BDEE5
:00000001FF
