:020000040000FA
:040000008031222801
:100008007E1480312000131E0A280B281528220090
:100018008C1C0F28102813282000131215282000E4
:1000280013120B1D1828192820280B117808013ED7
:10003800F8000030793DF9007E100900803124284D
:1000480070308400003085000A30813119218031F8
:100058002030840000308500393081311921803109
:10006800A030840000308500193081311921803199
:100078007E1020008031912822008E018D018C0194
:1000880021000C1423000C1424000C1021008C10E7
:1000980023008C1424008C1021008E1723008E134B
:1000A80024008E1349303C00BD0021000E132300AC
:1000B8000E1324000E1304303D00A6008B170B17F7
:1000C800210011138B16111213169F171F141F12DC
:1000D8009F1220001312290011088F39303891001F
:1000E800FC30910511119117033090051010210073
:1000F800971197121708F8390538970023009F11B0
:100108001E151E1200309C0019309B009D171E13EF
:100118009E161D162100911608008131112180318B
:100128008031402080310530FA008130FB00803179
:10013800DE2080317908803AFD0080307D02031D81
:10014800A7280B307802031CAA28AB289E28031086
:1001580022008C1C03140318B228B52822008C1422
:10016800B72822008C10F801F901F601F701770889
:10017800850076088400053084078130853D0008B5
:1001880023009A009E1CC928CA28C6280130F607F1
:100198000030F73D7708803AFD0080307D02031D6E
:1001A800D72816307602031CDA28DB28BB289E28BD
:1001B80080312228EE287A0884007B088500000810
:1001C80023009A009E1CE928EA28E6280130FA074D
:1001D8000030FB3D7A0884007B0885001200031D6F
:1001E800F628F728DF280A3023009A009E1CFD28ED
:1001F800FE28FA280D309A009E1C0329042900299C
:1002080008004234693465346E34763465346E34AB
:10021800693464346F3420340034033021009B0483
:100228001B08873938389B000800640080010131B9
:06023800890B1A290034B5
:020000040001F9
:04000E00E7C97BDEE5
:00000001FF
