:0600000000F055EF00F0D6
:08000800FFFF6082EFEF0FF033
:10001800FFFF6080D8CF49F0E8CF4AF0E0CF4BF03F
:10002800FACF4CF0FBCF4DF0E9CF4EF0EACF4FF0CE
:10003800E1CF50F0E2CF51F0D9CF52F0DACF53F000
:10004800F3CF54F0F4CF55F0F6CF56F0F7CF57F082
:10005800F8CF58F0F5CF59F059C0F5FF58C0F8FF60
:1000680057C0F7FF56C0F6FF55C0F4FF54C0F3FF62
:1000780053C0DAFF52C0D9FF51C0E2FF50C0E1FFC0
:100088004FC0EAFF4EC0E9FF4DC0FBFF4CC0FAFF6E
:100098004BC0E0FF4AC0E8FF49C0D8FF609010009D
:0600A800FFFF8AEF11F0DA
:100600000001000A006400E8031027436F6D616E6B
:10061000646F206E6F207265636F6E6F6369646FC5
:100620000A0D00554D4252414C4652454355454EE8
:100630004349410050554C534F530025640A0D0067
:0106400000B9
:10064200FFFF2EEC12F069EC10F0FFFFCF0E5A6E96
:10065200000E5B6E290E5C6E060E5D6EA9EC11F04B
:10066200B30E5A6E000E5B6E230E5C6E060E5D6E4E
:10067200A9EC11F0D90E5A6E000E5B6E340E5C6E50
:10068200060E5D6EA9EC11F0880E5A6E000E5B6EBE
:100692000B0E5C6E060E5D6EA9EC11F09E0E5A6E8C
:1006A200000E5B6ECF0E5C6E000E5D6E5DEC11F0A7
:1006B2005AC011F05BC012F09E0E5A6E000E5B6EB5
:1006C200B30E5C6E000E5D6E5DEC11F05AC00FF061
:1006D2005BC010F09E0E5A6E000E5B6ED90E5C6E01
:1006E200000E5D6E5DEC11F05AC00DF05BC00EF0B5
:1006F20011501210D8B429D00F501010D8B425D0F0
:100702000D500E10D8B421D029042A10D8A41DD01F
:10071200000E1A6E000E196EFFFF1ABE06D01A5096
:1007220014E1160E195CD8B010D0FFFF880E192400
:10073200D96E000E1A20DA6EDF50AD6E00F0FFFFA8
:10074200ACA2FDD7194A1A2AE7D7FFFF115012109F
:10075200D8A402D0010E0DD0FFFF0F501010D8A464
:1007620002D0020E06D0FFFF0D500E10D8A403D007
:10077200030EFFFF2B6EFFFF00F027042810D8A402
:1007820043D009500A10D8A43FD0010E000184279B
:10079200000E852386238723C40E000184192FE1CE
:1007A200090E000185190001861100018711D8A4E4
:1007B20026D000F081AE04D00001F66BF62B03D0F8
:1007C200FFFF0001F66BFFFF0001F651056E066A9E
:1007D2000550FF0A0001F66F0001F633F6338A5026
:1007E2000001F6197F0BF6198A6E000E0001846F64
:1007F200000E856F000E866F000E876F00F0FFFF00
:10080200000E286E000E276EFFFF27042810D8A4C2
:1008120039D009040A10D8A435D0010E000180276E
:10082200000E812382238323E80E0001801925E133
:10083200030E000181190001821100018311D8A465
:100842001CD081AE02D0010E02D0FFFF000EFFFFCE
:10085200FF0A0001F66F0001F633F6338A500001F9
:10086200F6197F0BF6198A6E000E0001806F000EDA
:10087200816F000E826F000E836FFFFF000E286EE5
:10088200000E276EFFFF07040810D8B47AD02104A7
:100892002210D8A476D0174A182A00F0170418108C
:1008A200D8A46AD000F0CECF5AF0CFCF5BF017C0F9
:1008B2005CF018C05DF027EC11F05AC001F05BC08B
:1008C20002F0036A046A5EC0F6F05FC0F7F0000E41
:1008D2000001F7BFFF0EF86FF96F0001F651015CDE
:1008E2000001F75102580001F85103580450800AE0
:1008F2000001FA6F0001F951800A0001FA59D8B0DB
:100902003BD000F02D0E0001E66F000E0001E76FF4
:100912003B0E0001E86F060E0001E96F01C0EAF02C
:1009220002C0EBF003C0ECF004C0EDF01CEC0FF0E1
:10093200000E1A6E000E196EFFFF1ABE06D01A5074
:1009420016E1080E195CD8B012D0FFFFD890193406
:10095200D96E1A34DA6E2D0ED926000EDA22DF5045
:10096200AD6EFFFFACA2FDD7194A1A2AE5D7FFFFE9
:10097200000E226E000E216EFFFF000E186E000E9A
:10098200176EFFFF29042A10D8A45FD69E0E5A6E56
:10099200000E5B6ECF0E5C6E000E5D6E5DEC11F0B4
:1009A2005AC011F05BC012F09E0E5A6E000E5B6EC2
:1009B200B30E5C6E000E5D6E5DEC11F05AC00FF06E
:1009C2005BC010F09E0E5A6E000E5B6ED90E5C6E0E
:1009D200000E5D6E5DEC11F05AC00DF05BC00EF0C2
:1009E20011501210D8A402D0010E0DD0FFFF0F50EB
:1009F2001010D8A402D0020E06D0FFFF0D500E1028
:100A0200D8A403D0030EFFFF2B6EFFFF2B04D8A444
:100A120055EF00F0000E0A6E000E096E000E086E11
:100A2200010E076E00F0310E0001A819D8A479D08A
:100A320021042210D8A475D0174A182A00F01704EE
:100A42001810D8A469D000F0CECF5AF0CFCF5BF007
:100A520017C05CF018C05DF027EC11F05AC001F02D
:100A62005BC002F0036A046A5EC0F6F05FC0F7F092
:100A7200000E0001F7BFFF0EF86FF96F0001F6518B
:100A8200015C0001F75102580001F851035804506B
:100A9200800A0001FA6F0001F951800A0001FA5937
:100AA200D8B03AD02D0E0001E66F000E0001E76FBC
:100AB2003B0E0001E86F060E0001E96F01C0EAF08B
:100AC20002C0EBF003C0ECF004C0EDF01CEC0FF040
:100AD200000E1A6E000E196EFFFF1ABE06D01A50D3
:100AE20016E1080E195CD8B012D0FFFFD890193465
:100AF200D96E1A34DA6E2D0ED926000EDA22DF50A4
:100B0200AD6EFFFFACA2FDD7194A1A2AE5D7FFFF47
:100B1200000E226E000E216EFFFF000E186E000EF8
:100B2200176EFFFF320E0001A819D8A478D0210455
:100B32002210D8A474D0174A182A020E17181810B7
:100B4200D8A468D0CECF5AF0CFCF5BF017C05CF0FC
:100B520018C05DF027EC11F05AC001F05BC002F042
:100B6200036A046A5EC0F6F05FC0F7F0000E00018F
:100B7200F7BFFF0EF86FF96F0001F651015C00013B
:100B8200F75102580001F85103580450800A00013D
:100B9200FA6F0001F951800A0001FA59D8B03AD02F
:100BA2002D0E0001E66F000E0001E76F3B0E000103
:100BB200E86F060E0001E96F01C0EAF002C0EBF037
:100BC20003C0ECF004C0EDF01CEC0FF0000E1A6E46
:100BD200000E196EFFFF1ABE06D01A5016E1080E5B
:100BE200195CD8B012D0FFFFD8901934D96E1A34DC
:100BF200DA6E2D0ED926000EDA22DF50AD6EFFFF1F
:100C0200ACA2FDD7194A1A2AE5D7FFFF000E226EC1
:100C1200000E216EFFFF000E186E000E176EFFFF12
:100C2200330E0001A819D8A478D021042210D8A428
:100C320074D0174A182A030E17181810D8A468D0AF
:100C4200CECF5AF0CFCF5BF017C05CF018C05DF08A
:100C520027EC11F05AC001F05BC002F0036A046A8B
:100C62005EC0F6F05FC0F7F0000E0001F7BFFF0EA6
:100C7200F86FF96F0001F651015C0001F75102585B
:100C82000001F85103580450800A0001FA6F000174
:100C9200F951800A0001FA59D8B03AD02D0E00015C
:100CA200E66F000E0001E76F3B0E0001E86F060ED3
:100CB2000001E96F01C0EAF002C0EBF003C0ECF002
:100CC20004C0EDF01CEC0FF0000E1A6E000E196E4F
:100CD200FFFF1ABE06D01A5016E1080E195CD8B0F2
:100CE20012D0FFFFD8901934D96E1A34DA6E2D0E55
:100CF200D926000EDA22DF50AD6EFFFFACA2FDD77F
:100D0200194A1A2AE5D7FFFF000E226E000E216E45
:100D1200FFFF000E186E000E176EFFFF340E00016B
:100D2200A819D8A478D021042210D8A474D0174AC4
:100D3200182A040E17181810D8A468D0CECF5AF06B
:100D4200CFCF5BF017C05CF018C05DF027EC11F05C
:100D52005AC001F05BC002F0036A046A5EC0F6F09A
:100D62005FC0F7F0000E0001F7BFFF0EF86FF96FDA
:100D72000001F651015C0001F75102580001F851DF
:100D820003580450800A0001FA6F0001F951800AE9
:100D92000001FA59D8B03AD02D0E0001E66F000ECC
:100DA2000001E76F3B0E0001E86F060E0001E96FDC
:100DB20001C0EAF002C0EBF003C0ECF004C0EDF0B9
:100DC2001CEC0FF0000E1A6E000E196EFFFF1ABE19
:100DD20006D01A5016E1080E195CD8B012D0FFFFE7
:100DE200D8901934D96E1A34DA6E2D0ED926000E27
:100DF200DA22DF50AD6EFFFFACA2FDD7194A1A2AE4
:100E0200E5D7FFFF000E226E000E216EFFFF000EDF
:100E1200186E000E176EFFFF350E0001A819D8A438
:100E220078D021042210D8A474D0174A182A050EAB
:100E320017181810D8A46DD0CECF5AF0CFCF5BF0D0
:100E420017C05CF018C05DF027EC11F05AC001F039
:100E52005BC002F0036A046A5EC0F6F05FC0F7F09E
:100E6200000E0001F7BFFF0EF86FF96F0001F65197
:100E7200015C0001F75102580001F8510358045077
:100E8200800A0001FA6F0001F951800A0001FA5943
:100E9200D8B03AD02D0E0001E66F000E0001E76FC8
:100EA2003B0E0001E86F060E0001E96F01C0EAF097
:100EB20002C0EBF003C0ECF004C0EDF01CEC0FF04C
:100EC200000E1A6E000E196EFFFF1ABE06D01A50DF
:100ED20016E1060E195CD8B012D0FFFFD890193473
:100EE200D96E1A34DA6E2D0ED926000EDA22DF50B0
:100EF200AD6EFFFFACA2FDD7194A1A2AE5D7FFFF54
:100F0200000E226E000E216EFFFF000E186E000E04
:100F1200176EFFFF360E0001A819D8A478D021045D
:100F22002210D8A474D0174A182A060E17181810BF
:100F3200D8A468D0CECF5AF0CFCF5BF017C05CF008
:100F420018C05DF027EC11F05AC001F05BC002F04E
:100F5200036A046A5EC0F6F05FC0F7F0000E00019B
:100F6200F7BFFF0EF86FF96F0001F651015C000147
:100F7200F75102580001F85103580450800A000149
:100F8200FA6F0001F951800A0001FA59D8B03AD03B
:100F92002D0E0001E66F000E0001E76F3B0E00010F
:100FA200E86F060E0001E96F01C0EAF002C0EBF043
:100FB20003C0ECF004C0EDF01CEC0FF0000E1A6E52
:100FC200000E196EFFFF1ABE06D01A5016E1080E67
:100FD200195CD8B012D0FFFFD8901934D96E1A34E8
:100FE200DA6E2D0ED926000EDA22DF50AD6EFFFF2B
:100FF200ACA2FDD7194A1A2AE5D7FFFF000E226ECE
:10100200000E216EFFFF000E186E000E176EFFFF1E
:10101200370E0001A819D8A478D021042210D8A430
:1010220074D0174A182A070E17181810D8A468D0B7
:10103200CECF5AF0CFCF5BF017C05CF018C05DF096
:1010420027EC11F05AC001F05BC002F0036A046A97
:101052005EC0F6F05FC0F7F0000E0001F7BFFF0EB2
:10106200F86FF96F0001F651015C0001F751025867
:101072000001F85103580450800A0001FA6F000180
:10108200F951800A0001FA59D8B03AD02D0E000168
:10109200E66F000E0001E76F3B0E0001E86F060EDF
:1010A2000001E96F01C0EAF002C0EBF003C0ECF00E
:1010B20004C0EDF01CEC0FF0000E1A6E000E196E5B
:1010C200FFFF1ABE06D01A5016E1080E195CD8B0FE
:1010D20012D0FFFFD8901934D96E1A34DA6E2D0E61
:1010E200D926000EDA22DF50AD6EFFFFACA2FDD78B
:1010F200194A1A2AE5D7FFFF000E226E000E216E52
:10110200FFFF000E186E000E176EFFFF380E000173
:10111200A819D8A478D021042210D8A474D0174AD0
:10112200182A080E17181810D8A468D0CECF5AF073
:10113200CFCF5BF017C05CF018C05DF027EC11F068
:101142005AC001F05BC002F0036A046A5EC0F6F0A6
:101152005FC0F7F0000E0001F7BFFF0EF86FF96FE6
:101162000001F651015C0001F75102580001F851EB
:1011720003580450800A0001FA6F0001F951800AF5
:101182000001FA59D8B03AD02D0E0001E66F000ED8
:101192000001E76F3B0E0001E86F060E0001E96FE8
:1011A20001C0EAF002C0EBF003C0ECF004C0EDF0C5
:1011B2001CEC0FF0000E1A6E000E196EFFFF1ABE25
:1011C20006D01A5016E1080E195CD8B012D0FFFFF3
:1011D200D8901934D96E1A34DA6E2D0ED926000E33
:1011E200DA22DF50AD6EFFFFACA2FDD7194A1A2AF0
:1011F200E5D7FFFF000E226E000E216EFFFF000EEC
:10120200186E000E176EFFFF390E0001A819D8A440
:1012120055EF00F021042210D8A455EF00F0174A30
:10122200182A090E17181810D8A468D0CECF5AF071
:10123200CFCF5BF017C05CF018C05DF027EC11F067
:101242005AC001F05BC002F0036A046A5EC0F6F0A5
:101252005FC0F7F0000E0001F7BFFF0EF86FF96FE5
:101262000001F651015C0001F75102580001F851EA
:1012720003580450800A0001FA6F0001F951800AF4
:101282000001FA59D8B03AD02D0E0001E66F000ED7
:101292000001E76F3B0E0001E86F060E0001E96FE7
:1012A20001C0EAF002C0EBF003C0ECF004C0EDF0C4
:1012B2001CEC0FF0000E1A6E000E196EFFFF1ABE24
:1012C20006D01A5016E1080E195CD8B012D0FFFFF2
:1012D200D8901934D96E1A34DA6E2D0ED926000E32
:1012E200DA22DF50AD6EFFFFACA2FDD7194A1A2AEF
:1012F200E5D7FFFF000E226E000E216EFFFF000EEB
:10130200186E000E176E55EF00F000F000F0FFFFB0
:101312001ABE06D01A5016E1080E195CD8B012D0C7
:10132200FFFFD8901934D96E1A34DA6E2D0ED926F1
:10133200000EDA22DF50AD6EFFFFACA2FDD7194AD4
:101342001A2AE5D7FFFF000E226E000E216E000E54
:10135200186E000E176E320E0001A819D8A478D0AC
:1013620021042210D8A474D0174A182A020E171882
:101372001810D8A468D0CECF5AF0CFCF5BF017C0E8
:101382005CF018C05DF027EC11F05AC001F05BC0B0
:1013920002F0036A046A5EC0F6F05FC0F7F0000E66
:1013A2000001F7BFFF0EF86FF96F0001F651015C03
:1013B2000001F75102580001F85103580450800A05
:1013C2000001FA6F0001F951800A0001FA59D8B000
:1013D2003AD02D0E0001E66F000E0001E76F3B0EC2
:1013E2000001E86F060E0001E96F01C0EAF002C0D9
:1013F200EBF003C0ECF004C0EDF01CEC0FF0000EBB
:101402001A6E000E196EFFFF1ABE06D01A5016E1B0
:10141200080E195CD8B012D0FFFFD8901934D96EDB
:101422001A34DA6E2D0ED926000EDA22DF50AD6E96
:10143200FFFFACA2FDD7194A1A2AE5D7FFFF000E1B
:10144200226E000E216EFFFF000E186E000E176E48
:10145200FFFF330E0001A819D8A478D0210422106E
:10146200D8A474D0174A182A030E17181810D8A433
:1014720068D0CECF5AF0CFCF5BF017C05CF018C067
:101482005DF027EC11F05AC001F05BC002F0036A74
:10149200046A5EC0F6F05FC0F7F0000E0001F7BF0D
:1014A200FF0EF86FF96F0001F651015C0001F75170
:1014B20002580001F85103580450800A0001FA6FE3
:1014C2000001F951800A0001FA59D8B03AD02D0E24
:1014D2000001E66F000E0001E76F3B0E0001E86FAE
:1014E200060E0001E96F01C0EAF002C0EBF003C092
:1014F200ECF004C0EDF01CEC0FF0000E1A6E000EC2
:10150200196EFFFF1ABE06D01A5016E1080E195CBA
:10151200D8B012D0FFFFD8901934D96E1A34DA6ECF
:101522002D0ED926000EDA22DF50AD6EFFFFACA2DF
:10153200FDD7194A1A2AE5D7FFFF000E226E000EC8
:10154200216EFFFF000E186E000E176EFFFF340EA5
:101552000001A819D8A478D021042210D8A474D0EC
:10156200174A182A040E17181810D8A468D0CECF1C
:101572005AF0CFCF5BF017C05CF018C05DF027ECDB
:1015820011F05AC001F05BC002F0036A046A5EC047
:10159200F6F05FC0F7F0000E0001F7BFFF0EF86F24
:1015A200F96F0001F651015C0001F7510258000188
:1015B200F85103580450800A0001FA6F0001F951F2
:1015C200800A0001FA59D8B03AD02D0E0001E66F18
:1015D200000E0001E76F3B0E0001E86F060E0001EE
:1015E200E96F01C0EAF002C0EBF003C0ECF004C006
:1015F200EDF01CEC0FF0000E1A6E000E196EFFFFDC
:101602001ABE06D01A5016E1080E195CD8B012D0D4
:10161200FFFFD8901934D96E1A34DA6E2D0ED926FE
:10162200000EDA22DF50AD6EFFFFACA2FDD7194AE1
:101632001A2AE5D7FFFF000E226E000E216EFFFF71
:10164200000E186E000E176EFFFF350E0001A8196E
:10165200D8A478D021042210D8A474D0174A182A0A
:10166200050E17181810D8A46DD0CECF5AF0CFCFD0
:101672005BF017C05CF018C05DF027EC11F05AC0A7
:1016820001F05BC002F0036A046A5EC0F6F05FC05C
:10169200F7F0000E0001F7BFFF0EF86FF96F0001BF
:1016A200F651015C0001F75102580001F85103584C
:1016B2000450800A0001FA6F0001F951800A00010A
:1016C200FA59D8B03AD02D0E0001E66F000E000193
:1016D200E76F3B0E0001E86F060E0001E96F01C0E3
:1016E200EAF002C0EBF003C0ECF004C0EDF01CEC39
:1016F2000FF0000E1A6E000E196EFFFF1ABE06D012
:101702001A5016E1080E195CD8B012D0FFFFD8901B
:101712001934D96E1A34DA6E2D0ED926000EDA2259
:10172200DF50AD6EFFFFACA2FDD7194A1A2AE5D7EA
:10173200FFFF000E226E000E216EFFFF000E186EDC
:10174200000E176EFFFF360E0001A819D8A478D03C
:1017520021042210D8A474D0174A182A060E17188A
:101762001810D8A468D0CECF5AF0CFCF5BF017C0F4
:101772005CF018C05DF027EC11F05AC001F05BC0BC
:1017820002F0036A046A5EC0F6F05FC0F7F0000E72
:101792000001F7BFFF0EF86FF96F0001F651015C0F
:1017A2000001F75102580001F85103580450800A11
:1017B2000001FA6F0001F951800A0001FA59D8B00C
:1017C2003AD02D0E0001E66F000E0001E76F3B0ECE
:1017D2000001E86F060E0001E96F01C0EAF002C0E5
:1017E200EBF003C0ECF004C0EDF01CEC0FF0000EC7
:1017F2001A6E000E196EFFFF1ABE06D01A5016E1BD
:10180200080E195CD8B012D0FFFFD8901934D96EE7
:101812001A34DA6E2D0ED926000EDA22DF50AD6EA2
:10182200FFFFACA2FDD7194A1A2AE5D7FFFF000E27
:10183200226E000E216EFFFF000E186E000E176E54
:10184200FFFF370E0001A819D8A478D02104221076
:10185200D8A474D0174A182A070E17181810D8A43B
:1018620068D0CECF5AF0CFCF5BF017C05CF018C073
:101872005DF027EC11F05AC001F05BC002F0036A80
:10188200046A5EC0F6F05FC0F7F0000E0001F7BF19
:10189200FF0EF86FF96F0001F651015C0001F7517C
:1018A20002580001F85103580450800A0001FA6FEF
:1018B2000001F951800A0001FA59D8B03AD02D0E30
:1018C2000001E66F000E0001E76F3B0E0001E86FBA
:1018D200060E0001E96F01C0EAF002C0EBF003C09E
:1018E200ECF004C0EDF01CEC0FF0000E1A6E000ECE
:1018F200196EFFFF1ABE06D01A5016E1080E195CC7
:10190200D8B012D0FFFFD8901934D96E1A34DA6EDB
:101912002D0ED926000EDA22DF50AD6EFFFFACA2EB
:10192200FDD7194A1A2AE5D7FFFF000E226E000ED4
:10193200216EFFFF000E186E000E176EFFFF380EAD
:101942000001A819D8A478D021042210D8A474D0F8
:10195200174A182A080E17181810D8A468D0CECF24
:101962005AF0CFCF5BF017C05CF018C05DF027ECE7
:1019720011F05AC001F05BC002F0036A046A5EC053
:10198200F6F05FC0F7F0000E0001F7BFFF0EF86F30
:10199200F96F0001F651015C0001F7510258000194
:1019A200F85103580450800A0001FA6F0001F951FE
:1019B200800A0001FA59D8B03AD02D0E0001E66F24
:1019C200000E0001E76F3B0E0001E86F060E0001FA
:1019D200E96F01C0EAF002C0EBF003C0ECF004C012
:1019E200EDF01CEC0FF0000E1A6E000E196EFFFFE8
:1019F2001ABE06D01A5016E1080E195CD8B012D0E1
:101A0200FFFFD8901934D96E1A34DA6E2D0ED9260A
:101A1200000EDA22DF50AD6EFFFFACA2FDD7194AED
:101A22001A2AE5D7FFFF000E226E000E216EFFFF7D
:101A3200000E186E000E176EFFFF390E0001A81976
:101A4200D8A478D021042210D8A474D0174A182A16
:101A5200090E17181810D8A468D0CECF5AF0CFCFDD
:101A62005BF017C05CF018C05DF027EC11F05AC0B3
:101A720001F05BC002F0036A046A5EC0F6F05FC068
:101A8200F7F0000E0001F7BFFF0EF86FF96F0001CB
:101A9200F651015C0001F75102580001F851035858
:101AA2000450800A0001FA6F0001F951800A000116
:101AB200FA59D8B03AD02D0E0001E66F000E00019F
:101AC200E76F3B0E0001E86F060E0001E96F01C0EF
:101AD200EAF002C0EBF003C0ECF004C0EDF01CEC45
:101AE2000FF0000E1A6E000E196EFFFF1ABE06D01E
:101AF2001A5016E1080E195CD8B012D0FFFFD89028
:101B02001934D96E1A34DA6E2D0ED926000EDA2265
:101B1200DF50AD6EFFFFACA2FDD7194A1A2AE5D7F6
:101B2200FFFF000E226E000E216EFFFF000E186EE8
:101B3200000E176EFFFF030E2B18D8A426EF03F03A
:101B4200000E0A6E010E096E000E086E010E076E7F
:101B5200CECF0BF0CFCF0CF02D0E0001E66F000EB2
:101B62000001E76F3B0E0001E86F060E0001E96F0E
:101B72000BC0EAF00CC0EBF01CEC0FF0000E1A6E7A
:101B8200000E196E1ABE0BD01A5007E1FFFF080EA5
:101B9200195CD8B026EF03F002D026EF03F0FFFF66
:101BA200D8901934D96E1A34DA6E2D0ED926000E59
:101BB200DA22DF50AD6EFFFFACA2FDD7194A1A2A16
:101BC2001ABEEDD71A5001E1E1D726EF03F0FFFF6D
:101BD200E6C0D9FFE7C0DAFFDF500001F56F000170
:101BE200E64BE72B0001F551E6EC11F0D8B0EFD748
:101BF200000E0001F16F000EF26F000EF36F000E87
:101C0200F46F000E0001F06F2D0E0001F519D8A43B
:101C120009D0010E0001F06F0BD0FFFF0001E64B6F
:101C2200E72B0FD0FFFF2B0E0001F519D8A409D026
:101C3200FFFFE6C0D9FFE7C0DAFFDF500001F56F12
:101C4200ECD7FFFF300E0001F519D8A43FD0E6C053
:101C5200D9FFE7C0DAFFDF500001F56F0001E64B64
:101C6200E72B0001EA510001EB11D8B407D0100EA6
:101C72000001EA190001EB11D8A41CD0FFFF780E75
:101C82000001F519D8B405D0580E0001F519D8A4F1
:101C920011D0FFFF000E0001EB6F100EEA6FE6C0DD
:101CA200D9FFE7C0DAFFDF500001F56F0001E64B14
:101CB200E72B0CD0FFFF0001EA510001EB11D8A481
:101CC20005D0000E0001EB6F080EEA6FFFFF000166
:101CD200EA510001EB11D8A405D0000E0001EB6F10
:101CE2000A0EEA6FFFFF0001F551C8EC11F0D8A00F
:101CF20008D00001F55121EC12F0C90F0001F56F77
:101D02000AD0FFFF0001F551FDEC11F0D8A04DD033
:101D1200300E0001F55FFFFF0001F5510001EC6F8D
:101D2200ED6B0001EA510001EC5D0001ED51800A0A
:101D32000001EE6F0001EB51800A0001EE59D8B0AC
:101D420034D0EAC0DEF0EBC0DFF00001000EDFBFEE
:101D5200FF0EE06FE16FF1C0E2F0F2C0E3F0F3C01A
:101D6200E4F0F4C0E5F0B5EC10F00001F55100012B
:101D7200DE250001F16F000E0001DF210001F26F8C
:101D8200000E0001E0210001F36F000E0001E121CD
:101D92000001F46FE6C0D9FFE7C0DAFFDF500001AF
:101DA200F56F0001E64BE72B9DD7FFFF0001E851DD
:101DB2000001E911D8B412D0FF0E0001E62500019E
:101DC200EC6FFF0E0001E7210001ED6FE8C0D9FFC3
:101DD200E9C0DAFFECC0DEFFEDC0DDFFFFFF00016E
:101DE200F0510001D8B41BD0F1C0ECF0F2C0EDF01C
:101DF200F3C0EEF0F4C0EFF00001EC1FED1FEE1F98
:101E0200EF1FEC2B000EED23EE23EF23ECC0E6F0E8
:101E1200EDC0E7F0EEC0E8F0EFC0E9F009D0FFFF57
:101E2200F1C0E6F0F2C0E7F0F3C0E8F0F4C0E9F088
:101E3200FFFF1200FFFFFFFFEA0E0001EF6F000E2F
:101E42000001F06FB2D0FFFF250E0001F519D8B4E2
:101E52000AD0E6C0D9FFE7C0DAFFF5C0DFFF000114
:101E6200E64BE72BA2D0FFFF000E0001F16FE8C0A6
:101E7200F6FFE9C0F7FF0001E84BE92B0800FFFF7E
:101E8200F5CFF5F00001F551000AD8B49ED0640AEE
:101E9200D8B403D00D0AD8A488D0FFFFEFC0D9FF71
:101EA200F0C0DAFFDECFF3F0DDCFF4F0020E000176
:101EB200EF27000EF0230001F4AF08D0030E00015B
:101EC200F1130001F36DF41FD8B0F42BFFFF010EE4
:101ED2000001F56FFFFF050E0001F519D8B418D007
:101EE2000001F551020D010EF324F66E060EF420E8
:101EF200F76E0900FFFFF5500001F35D0900FFFFD7
:101F0200F5500001F459D8A003D00001F52BE2D717
:101F1200FFFFF1C0EEF0030E0001EE17D8B409D0B6
:101F2200E6C0D9FFE7C0DAFF2D0EDF6E0001E64BF7
:101F3200E72BFFFFF5C0F2F031D0FFFF0001F251B5
:101F4200020D010EF324F66E060EF420F76E090060
:101F5200FFFFF5CF5CF00A00FFFFF5CF5DF0F3C0A5
:101F62005AF0F4C05BF027EC11F05AC0E1F05BC00C
:101F7200E2F0000E0001E46F0A0EE36FEFEC10F0E6
:101F82000001E151300F0001F56FE6C0D9FFE7C053
:101F9200DAFFF5C0DFFF0001E64BE72BFFFF000190
:101FA200F2070001F229D8A4C8D7FFFFE8C0F6FF64
:101FB200E9C0F7FF0001E84BE92B0800FFFFF5CF6E
:101FC200F5F00001F551D8A43ED7FFFFE6C0D9FFD6
:101FD200E7C0DAFF000EDF6E1200FFFFFFFFFACF4D
:101FE2003BF0FBCF3CF0E9CF3DF0EACF3EF0E1CF52
:101FF2003FF0E2CF40F0D9CF41F0DACF42F0F3CF59
:1020020043F0F4CF44F0F6CF45F0F7CF46F0F8CFE7
:1020120047F0F5CF48F000F0F2A40AD0000E226E8D
:10202200010E216E00F0B30ED76EB50ED66EF2948D
:10203200FFFF9EAA0FD00D0EAE18D8B40BD09E0E85
:102042002524D96E000E2620DA6EAECFDFFF254A98
:10205200262A9E9AFFFF9EAA0ED00D0EAE18D8A475
:102062000AD0000E266E000E256E000E2A6E010E9C
:10207200296E9E9A00F0FFFFA1A20AD0000E286EE0
:10208200010E276EFF0EB36EC10EB26E00F0A1926A
:10209200FFFF48C0F5FF47C0F8FF46C0F7FF45C045
:1020A200F6FF44C0F4FF43C0F3FF42C0DAFF41C071
:1020B200D9FF40C0E2FF3FC0E1FF3EC0EAFF3DC0A2
:1020C200E9FF3CC0FBFF3BC0FAFF60921100FFFF3B
:1020D200FFFFC150F00B0709C16E000E806E000EAB
:1020E200816E000E826EC10E946E100E926E9390EF
:1020F2009392939493969398939A939C939EF18040
:10210200948E949C0A0EAF6EAB8EAC98AC84AC8A63
:10211200AB88D08EF28EF28C9D8A9F8AD59CD59AFE
:10212200D598D596D580D582D584F184F28AD58E7C
:10213200B30ED76EB50ED66E9F909D90CD8ECD828A
:10214200CD98CD9ACD80000ECF6E000ECE6EA282BB
:10215200A082B18EB192B18AB188B180FD0EB36E08
:102162008F0EB26E1200FFFFFFFF000E5A6E000EBE
:102172005B6E000E5C6E000E5D6EFFFF0001DEA165
:102182000CD00001E2515A260001E3515B2200010A
:10219200E4515C220001E5515D22FFFF0001D8906D
:1021A200E237E337E437E5370001D890E133E03333
:1021B200DF33DE330001DE510001DF110001E011E7
:1021C2000001E111D8A4D9D75AC0DEF05BC0DFF01C
:1021D2005CC0E0F05DC0E1F01200FFFFFFFF000114
:1021E200E3510001E411D8B42AD0010E0001E56FD9
:1021F20007D0FFFF0001D890E337E4370001E52B59
:10220200FFFF0001E4AFF5D7FFFF0001E35100013A
:10221200E15D0001E4510001E259D8A008D00001BB
:10222200E3510001E15F0001E4510001E25BFFFFC5
:102232000001D890E433E3330001E52FE5D7FFFF37
:10224200E1C0E1F0E2C0E2F01200FFFFFFFF000E8A
:102252000001E06F000EDF6F5C505D10D8B425D036
:10226200010E0001DE6F06D0FFFFD8905C365D36AE
:102272000001DE2BFFFF5DAEF7D7FFFF0001D89014
:10228200DF37E0375C505A5C5D505B58D8A006D00F
:102292005C505A5E5D505B5A0001DF81FFFFD890AF
:1022A2005D325C320001DE2FE8D7FFFFDFC05AF05B
:1022B200E0C05BF01200FFFFFFFF05D0FFFF5A4AAC
:1022C2005B2A5C4A5D2AFFFF5AC0D9FF5BC0DAFF76
:1022D200DF500001DE6F5CC0D9FF5DC0DAFFDF5066
:1022E20000080001DE250001DF6F0001DF51D8A4E4
:1022F20007D05AC0D9FF5BC0DAFFDF50D8A4DED7BF
:10230200FFFF0001DF515A6E5B6A5ABE5B06120084
:10231200FFFF620EF66E240EF76E000EF86E0900D5
:10232200F5CF5EF00900F5CF5FF000EE80F05E0EB3
:10233200EE6AE806FDE100EE01F03A0EEE6AE8060A
:10234200FDE160906092000EF86E000121EF03F053
:10235200FFFF5AC0DEF05BC0DFF006D0FFFF0001D6
:10236200DE4BDF2B5C4A5D2AFFFF5CC0F6FF5DC0DF
:10237200F7FFDEC0D9FFDFC0DAFF0800FFFFF5CFAD
:10238200DFFFDF50D8B41200FFFFE8D7FFFFFFFFE7
:102392000001DF6F010E0001DE6F7B0E0001DF61C5
:1023A20004D0610E0001DF610AD0FFFF0001DF519E
:1023B2000FEC12F0D8B003D0000E0001DE6FFFFF69
:1023C200DEC05DF05D301200FFFFFFFF5C6E010EAC
:1023D2005B6E200E5C18D8B409D00E0E5C6003D080
:1023E200090E5C6003D0FFFF000E5B6EFFFF5BC057
:1023F2005AF05A301200FFFFFFFF5C6E000E5B6E58
:102402003A0E5C6005D02F0E5C6402D0010E5B6E4A
:10241200FFFF5BC05AF05A301200FFFFFFFF5C6EF5
:10242200000E5B6E5B0E5C6005D0400E5C6402D0F9
:10243200010E5B6EFFFF5BC05AF05A301200FFFFC5
:10244200FFFF5A6E7B0E5A6004D0600E5A6401D0B0
:102452005A9AFFFF5A501200FFFFFFFF1200FFFFC0
:04246200E803FFFF8D
:020000040020DA
:08000000FFFFFFFFFFFFFFFF00
:020000040030CA
:0E000000FF220100FF0080FF0FC00FE00F4045
:00000001FF
