:0600000000F062EF00F0C9
:10000800FFFF4282FACF01F0FBCF02F058EF03F076
:10001800FFFF4280D8CF0FF0E8CF10F0E0CF11F00B
:10002800FACF12F0FBCF13F0E9CF14F0EACF15F0B6
:10003800E1CF16F0E2CF17F0D9CF18F0DACF19F0E8
:10004800F3CF1AF0F4CF1BF0F6CF1CF0F7CF1DF06A
:10005800F8CF1EF0F5CF1FF0F2A40AD000F0000E82
:100068002B6E010E2A6EB30ED76EB50ED66EF294B5
:10007800FFFF1FC0F5FF1EC0F8FF1DC0F7FF1CC023
:10008800F6FF1BC0F4FF1AC0F3FF19C0DAFF18C04F
:10009800D9FF17C0E2FF16C0E1FF15C0EAFF14C080
:1000A800E9FF13C0FBFF12C0FAFF11C0E0FF10C048
:1000B800E8FF0FC0D8FF42901000FFFF69EF04F07F
:1000C800FFFF74EC04F0EFEC03F0FFFF2A042B10A1
:1000D800D8A4B4D02C502D10D8B42EB0AFD000F086
:1000E800CE50CE248B6ECECF27F0CFCF28F0070E80
:1000F800296EFFFFD89028322732292EFAD72746B3
:1001080027468A502718FB0B27188A6ECECF27F070
:10011800CFCF28F028C027F0286A8A502718FE0B6E
:1001280027188A6ECECF27F0CFCF28F0090E296E78
:10013800FFFFD89028322732292EFAD7273A2746A8
:1001480027468A502718BF0B27188A6ECECF27F06C
:10015800CFCF28F00A0E296EFFFFD8902832273219
:10016800292EFAD7273227328A5027187F0B2718CB
:100178008A6ECECF27F0CFCF28F00B0E296EFFFF67
:10018800D89028322732292EFAD789502718FE0B03
:100198002718896ECECF27F0CFCF28F00C0E296E06
:1001A800FFFFD89028322732292EFAD727468950C0
:1001B8002718FD0B2718896ECECF27F0CFCF28F050
:1001C8000D0E296EFFFFD89028322732292EFAD734
:1001D8002746274689502718FB0B2718896ECECF4C
:1001E80027F0CFCF28F00E0E296EFFFFD8902832C7
:1001F8002732292EFAD72746274627468950271817
:10020800F70B2718896ECECF27F0CFCF28F00F0E27
:10021800296EFFFFD89028322732292EFAD7273A9D
:1002280089502718EF0B2718896E000ECF6E000E25
:10023800CE6E000E2B6E000E2A6E00F0FFFF2C040F
:100248002D10D8A4A6D000F0CE50CE248B6ECECFE1
:1002580027F0CFCF28F0070E296EFFFFD89028325D
:100268002732292EFAD7274627468A502718FB0B0C
:1002780027188A6ECECF27F0CFCF28F028C027F0D6
:10028800286A8A502718FE0B27188A6ECECF27F0C7
:10029800CFCF28F0090E296EFFFFD89028322732D9
:1002A800292EFAD7273A274627468A502718BF0B00
:1002B80027188A6ECECF27F0CFCF28F00A0E296EE6
:1002C800FFFFD89028322732292EFAD72732273233
:1002D8008A5027187F0B27188A6ECECF27F0CFCFEA
:1002E80028F00B0E296EFFFFD89028322732292ECE
:1002F800FAD789502718FE0B2718896ECECF27F01A
:10030800CFCF28F00C0E296EFFFFD8902832273265
:10031800292EFAD7274689502718FD0B2718896EEA
:10032800CECF27F0CFCF28F00D0E296EFFFFD89043
:1003380028322732292EFAD72746274689502718E8
:10034800FB0B2718896ECECF27F0CFCF28F00E0EE3
:10035800296EFFFFD89028322732292EFAD7274650
:100368002746274689502718F70B2718896ECECFBE
:1003780027F0CFCF28F00F0E296EFFFFD890283234
:100388002732292EFAD7273A89502718EF0B271832
:10039800896EFFFF2A042B10D8A4FBD02C502D10F7
:1003A800D8B42EA0F6D0364A372A050E361837109C
:1003B800D8A4EAD000F0CECF20F0CFCF21F0000EA5
:1003C800236E050E226E39EC04F0D89020348B6E23
:1003D800CECF20F0CFCF21F0000E236E050E226E77
:1003E80039EC04F0070E276EFFFFD8902132203237
:1003F800272EFAD7204620468A502018FB0B2018B3
:100408008A6ECECF20F0CFCF21F0000E236E050EDE
:10041800226E39EC04F021C020F0216A8A5020189D
:10042800FE0B20188A6ECECF20F0CFCF21F0000E21
:10043800236E050E226E39EC04F0090E276EFFFFBD
:10044800D89021322032272EFAD7203A204620464B
:100458008A502018BF0B20188A6ECECF20F0CFCF3D
:1004680021F0000E236E050E226E39EC04F00A0E00
:10047800276EFFFFD89021322032272EFAD720325C
:1004880020328A5020187F0B20188A6ECECF20F099
:10049800CFCF21F0000E236E050E226E39EC04F04A
:1004A8000B0E276EFFFFD89021322032272EFAD765
:1004B80089502018FE0B2018896ECECF20F0CFCFA0
:1004C80021F0000E236E050E226E39EC04F00C0E9E
:1004D800276EFFFFD89021322032272EFAD72046E8
:1004E80089502018FD0B2018896ECECF20F0CFCF71
:1004F80021F0000E236E050E226E39EC04F00D0E6D
:10050800276EFFFFD89021322032272EFAD72046B7
:10051800204689502018FB0B2018896ECECF20F07A
:10052800CFCF21F0000E236E050E226E39EC04F0B9
:100538000E0E276EFFFFD89021322032272EFAD7D1
:1005480020462046204689502018F70B2018896E2F
:10055800CECF20F0CFCF21F0000E236E050E226EF5
:1005680039EC04F00F0E276EFFFFD89021322032AD
:10057800272EFAD7203A89502018EF0B2018896EB9
:10058800000E376E000E366EFFFF000E2B6E000E4B
:100598002A6EFFFF3A043B10D8A42BD032503310F8
:1005A800D8A427D034503510D8A423D0304A312AC3
:1005B800DE0E301819E11C0E3118D8A415D000F041
:1005C80080AA02D0010E02D0FFFF000EFFFFFF0A33
:1005D800276E273A274689502718DF0B2718896E78
:1005E800000E316E000E306EFFFF000E3B6E000EE7
:1005F8003A6EFFFF32043310D8A428D03A043B10D7
:10060800D8A424D03C4A3D2A00F0D80E3C1819E161
:10061800040E3D18D8A415D000F080AA02D0010E0F
:1006280002D0FFFF000EFFFFFF0A276E273A27467A
:1006380089502718DF0B2718896E000E3D6E000EB3
:100648003C6EFFFF000E3B6E000E3A6EFFFF340457
:100658003510D8A43AD53A043B10D8A436D5404A28
:10066800412A00F05E0E401819E12E0E4118D8A458
:1006780015D000F080AA02D0010E02D0FFFF000EB4
:10068800FFFFFF0A276E273A274689502718DF0BF6
:100698002718896E000E416E000E406EFFFF000E97
:1006A8003B6E000E3A6E11D5FFFFE9CF03F0EACF9B
:1006B80004F0E1CF05F0E2CF06F0D9CF07F0DACFAA
:1006C80008F0F3CF09F0F4CF0AF0F6CF0BF0F7CF2C
:1006D8000CF0F8CF0DF0F5CF0EF0F0A009D02E4AAF
:1006E8002F2AB30ED76EB50ED66E00F0F09052D00A
:1006F800FFFFA1A20BD0FF0EB36EC10EB26E000EAB
:100708003B6E010E3A6E00F0A19244D0FFFFF2A0BA
:1007180041D081CF81FF00F081A80ED0000E336E4A
:10072800010E326E000E356E000E346E384A392ACC
:1007380012D0FFFF00F02CD0FFFF81B812D0385044
:100748003910D8B40ED0000E356E010E346E000E7E
:10075800336E000E326EFFFFFF0EB36EC10EB26E27
:10076800E8D7FFFF81AA08D0000E2D6E010E2C6E6F
:1007780000F03E4A3F2A0CD0FFFF81BA09D03E5014
:100788003F10D8B405D0000E2D6E000E2C6ED1D7B8
:10079800FFFFF290FFFF0EC0F5FF0DC0F8FF0CC081
:1007A800F7FF0BC0F6FF0AC0F4FF09C0F3FF08C04B
:1007B800DAFF07C0D9FF06C0E2FF05C0E1FF04C0A9
:1007C800EAFF03C0E9FF02C0FBFF01C0FAFF429243
:1007D8001100FFFFFFFFFFFF938A938293889480A5
:1007E8009492949494969498949A949C949E9394A6
:1007F8009390939C939E92909292929492969298B0
:10080800929A000ECF6E000ECE6E000E806E000E15
:10081800816E000E826EC150F00B0709C16ED08E3A
:10082800F28EF28CF08CF086F19AF180F286F28AE0
:10083800F194D59CD59AD598D596D580D582D5846E
:10084800B30ED76EB50ED66ED58ECD8ECD82CD8039
:10085800CD98CD9ACD969D90B18E300EB112B192B1
:10086800B180A082A2821200FFFFFFFF000E256E5A
:10087800000E246E22502310D8B420D0010E266E0C
:1008880005D0FFFFD89022362336262AFFFF23AE55
:10089800F8D7FFFFD890243625362250205C235005
:1008A8002158D8A005D02250205E2350215A2480F8
:1008B800FFFFD89023322232262EEBD7FFFF24C029
:1008C80020F025C021F01200FFFF00EE2AF0180EDC
:1008D800EE6AE806FDE142904292000164EF00F002
:0808E800FFFF1200FFFFFFFFFC
:020000040020DA
:08000000FFFFFFFFFFFFFFFF00
:020000040030CA
:0E000000FF220D0EFF0080FF0FC00FE00F402B
:00000001FF
