:0600000000F055EF00F0D6
:08000800FFFF21824BEF06F01F
:10001800FFFF2180D8CF0FF0E8CF10F0E0CF11F02C
:10002800FACF12F0FBCF13F0E9CF14F0EACF15F0B6
:10003800E1CF16F0E2CF17F0D9CF18F0DACF19F0E8
:10004800F3CF1AF0F4CF1BF0F6CF1CF0F7CF1DF06A
:10005800F8CF1EF0F5CF1FF01FC0F5FF1EC0F8FF48
:100068001DC0F7FF1CC0F6FF1BC0F4FF1AC0F3FF4A
:1000780019C0DAFF18C0D9FF17C0E2FF16C0E1FFA8
:1000880015C0EAFF14C0E9FF13C0FBFF12C0FAFF56
:1000980011C0E0FF10C0E8FF0FC0D8FF219010008A
:1000A800FFFFA1EF06F0FFFF88EC06F0FFFFC2C0DC
:1000B8008AFF7CD1FFFF00F080CFC0F00001C16B48
:1000C8000001C2510001C05D0001C151800A206ECB
:1000D8000001C351800A2058D8B004D08B808B828D
:1000E8008B948B96FFFF0001C2510001C311D8A465
:1000F80005D0000E0001C36F200EC26FFFFFFF0E78
:100108000001C2250001C26FFF0E0001C3210001DA
:10011800C36FC2C08AFF010E0001806F000E816F9D
:10012800000E826F000E836F000183BF0FD00001A5
:1001380083511CE1FFFF300E0001805D510E00016C
:100148008159030E00018259D8B010D0FFFF00F08A
:10015800010E00018027000E8123822383230001E2
:1001680083BFF4D70001835101E1E4D7FFFF82B8D0
:1001780082AA1CD100F080CFC0F00001C16B000141
:10018800C2510001C05D0001C151800A206E00010A
:10019800C351800A2058D8B04BD08B908B828B8467
:1001A8008B960001C2510001C311D8A405D0000EDE
:1001B8000001C36F200EC26FFFFFFF0E0001C225B2
:1001C8000001C26FFF0E0001C3210001C36FC2C04E
:1001D8008AFF010E0001846F000E856F000E866F86
:1001E800000E876F000187BF0FD0000187511CE107
:1001F800FFFF300E0001845D510E00018559030E8A
:1002080000018659D8B010D0FFFF00F0010E0001A0
:100218008427000E852386238723000187BFF4D710
:100228000001875101E1E4D7FFFF82B882AABED05E
:10023800FFFF00F080CFC0F00001C16B0001C25188
:100248000001C05D0001C151800A206E0001C35148
:10025800800A2058D8B04BD08B908B928B848B8699
:100268000001C2510001C311D8A405D0000E00013D
:10027800C36F200EC26FFFFFFF0E0001C2250001F1
:10028800C26FFF0E0001C3210001C36FC2C08AFF05
:10029800010E0001886F000E896F000E8A6F000E34
:1002A8008B6F00018BBF0FD000018B511CE1FFFF4A
:1002B800300E0001885D510E00018959030E0001BE
:1002C8008A59D8B010D0FFFF00F0010E000188272E
:1002D800000E89238A238B2300018BBFF4D70001EA
:1002E8008B5101E1E4D7FFFF82B882AA5FD0FFFFFC
:1002F80080CFC0F00001C16B0001C2510001C05D98
:100308000001C151800A206E0001C351800A2058A3
:10031800D8B04CD08B808B928B948B860001C251C5
:100328000001C311D8A405D0000E0001C36F200E30
:10033800C26FFFFFFF0E0001C2250001C26FFF0E52
:100348000001C3210001C36FC2C08AFF010E000172
:100358008C6F000E8D6F000E8E6F000E8F6F000178
:100368008FBF0FD000018F511CE1FFFF300E00013D
:100378008C5D510E00018D59030E00018E59D8B0C5
:1003880010D0FFFF00F0010E00018C27000E8D2316
:100398008E238F2300018FBFF4D700018F5101E115
:1003A800E4D7FFFF82B882AA01D000F0FFFF82B82D
:1003B80082AAEBD27FD6FFFF80CFC0F00001C16BCD
:1003C8000001C2510001C05D0001C151800A206EC8
:1003D8000001C351800A2058D8B04BD08B808B9233
:1003E8008B948B960001C2510001C311D8A405D08B
:1003F800000E0001C36F200EC26FFFFFFF0E000149
:10040800C2250001C26FFF0E0001C3210001C36FA6
:10041800C2C08AFF010E0001906F000E916F000E9E
:10042800926F000E936F000193BF0FD0000193519C
:100438001CE1FFFF300E0001905D510E0001915943
:10044800030E00019259D8B010D0FFFF00F0010E42
:1004580000019027000E912392239323000193BF5C
:10046800F4D70001935101E1E4D7FFFF82B882BAC3
:100478008CD2FFFF80CFC0F00001C16B00F00001FB
:10048800C2510001C01906E10001C3510001C119A0
:10049800D8B44BD08B808B828B948B960001C25141
:1004A8000001C311D8A405D0000E0001C36F200EAF
:1004B800C26FFFFFFF0E0001C2250001C26FFF0ED1
:1004C8000001C3210001C36FC2C08AFF010E0001F1
:1004D800946F000E956F000E966F000E976F0001D7
:1004E80097BF0FD0000197511CE1FFFF300E0001AC
:1004F800945D510E00019559030E00019659D8B02C
:1005080010D0FFFF00F0010E00019427000E952384
:1005180096239723000197BFF4D70001975101E173
:10052800E4D7FFFF82B882BA30D2FFFF80CFC0F095
:100538000001C16B0001C2510001C01906E10001B0
:10054800C3510001C119D8B44BD08B908B828B94C6
:100558008B960001C2510001C311D8A405D0000E2A
:100568000001C36F200EC26FFFFFFF0E0001C225FE
:100578000001C26FFF0E0001C3210001C36FC2C09A
:100588008AFF010E0001986F000E996F000E9A6F96
:10059800000E9B6F00019BBF0FD000019B511CE117
:1005A800FFFF300E0001985D510E00019959030EAE
:1005B80000019A59D8B010D0FFFF00F0010E0001D9
:1005C8009827000E99239A239B2300019BBFF4D7F9
:1005D80000019B5101E1E4D7FFFF82B882BAD5D16F
:1005E800FFFF80CFC0F00001C16B0001C2510001C4
:1005F800C05D0001C151800A206E0001C351800A0C
:100608002058D8B04BD08B908B828B848B9600016E
:10061800C2510001C311D8A405D0000E0001C36F58
:10062800200EC26FFFFFFF0E0001C2250001C26F3E
:10063800FF0E0001C3210001C36FC2C08AFF010E73
:1006480000019C6F000E9D6F000E9E6F000E9F6F45
:1006580000019FBF0FD000019F511CE1FFFF300E2A
:1006680000019C5D510E00019D59030E00019E5929
:10067800D8B010D0FFFF00F0010E00019C27000E3B
:100688009D239E239F2300019FBFF4D700019F5104
:1006980001E1E4D7FFFF82B882BA77D1FFFF80CFAC
:1006A800C0F00001C16B0001C2510001C05D000132
:1006B800C151800A206E0001C351800A2058D8B069
:1006C8004BD08B908B928B848B960001C25100018A
:1006D800C311D8A405D0000E0001C36F200EC26F4D
:1006E800FFFFFF0E0001C2250001C26FFF0E0001CF
:1006F800C3210001C36FC2C08AFF010E0001A06FB1
:10070800000EA16F000EA26F000EA36F0001A3BF21
:100718000FD00001A3511CE1FFFF300E0001A05DC6
:10072800510E0001A159030E0001A259D8B010D0F2
:10073800FFFF00F0010E0001A027000EA123A22355
:10074800A3230001A3BFF4D70001A35101E1E4D71B
:10075800FFFF82B882BA19D1FFFF80CFC0F0000135
:10076800C16B0001C2510001C05D0001C151800A86
:10077800206E0001C351800A2058D8B04BD08B900E
:100788008B928B848B860001C2510001C311D8A4BF
:1007980005D0000E0001C36F200EC26FFFFFFF0ED1
:1007A8000001C2250001C26FFF0E0001C321000134
:1007B800C36FC2C08AFF010E0001A46F000EA56FAF
:1007C800000EA66F000EA76F0001A7BF0FD0000193
:1007D800A7511CE1FFFF300E0001A45D510E00017E
:1007E800A559030E0001A659D8B010D0FFFF00F09C
:1007F800010E0001A427000EA523A623A7230001AC
:10080800A7BFF4D70001A75101E1E4D7FFFF82B8E1
:1008180082BABBD0FFFF80CFC0F00001C16B0001DE
:10082800C2510001C05D0001C151800A206E000163
:10083800C351800A2058D8B04BD08B908B928B94A0
:100848008B860001C2510001C311D8A405D0000E47
:100858000001C36F200EC26FFFFFFF0E0001C2250B
:100868000001C26FFF0E0001C3210001C36FC2C0A7
:100878008AFF010E0001A86F000EA96F000EAA6F73
:10088800000EAB6F0001ABBF0FD00001AB511CE1F4
:10089800FFFF300E0001A85D510E0001A959030E9B
:1008A8000001AA59D8B010D0FFFF00F0010E0001D6
:1008B800A827000EA923AA23AB230001ABBFF4D7B6
:1008C8000001AB5101E1E4D7FFFF82B882BA5DD0E5
:1008D800FFFF80CFC0F00001C16B0001C2510001D1
:1008E800C05D0001C151800A206E0001C351800A19
:1008F8002058D8B04AD08B808B928B948B8600017D
:10090800C2510001C311D8A405D0000E0001C36F65
:10091800200EC26FFFFFFF0E0001C2250001C26F4B
:10092800FF0E0001C3210001C36FC2C08AFF010E80
:100938000001AC6F000EAD6F000EAE6F000EAF6F12
:100948000001AFBF0FD00001AF511CE1FFFF300E17
:100958000001AC5D510E0001AD59030E0001AE5906
:10096800D8B010D0FFFF00F0010E0001AC27000E38
:10097800AD23AE23AF230001AFBFF4D70001AF51C1
:1009880001E1E4D7FFFF82B88250FFFF82B882BA44
:1009980078D111D5FFFF80CFC0F00001C16B0001F5
:1009A800C2510001C05D0001C151800A206E0001E2
:1009B800C351800A2058D8B04BD08B808B928B942F
:1009C8008B960001C2510001C311D8A405D0000EB6
:1009D8000001C36F200EC26FFFFFFF0E0001C2258A
:1009E8000001C26FFF0E0001C3210001C36FC2C026
:1009F8008AFF010E0001B06F000EB16F000EB26FDA
:100A0800000EB36F0001B3BF0FD00001B3511CE15A
:100A1800FFFF300E0001B05D510E0001B159030E09
:100A28000001B259D8B010D0FFFF00F0010E00014C
:100A3800B027000EB123B223B3230001B3BFF4D70C
:100A48000001B35101E1E4D7FFFF82A882AA19D1BE
:100A5800FFFF80CFC0F00001C16B0001C25100014F
:100A6800C05D0001C151800A206E0001C351800A97
:100A78002058D8B04BD08B908B828B948B960001EA
:100A8800C2510001C311D8A405D0000E0001C36FE4
:100A9800200EC26FFFFFFF0E0001C2250001C26FCA
:100AA800FF0E0001C3210001C36FC2C08AFF010EFF
:100AB8000001B46F000EB56F000EB66F000EB76F71
:100AC8000001B7BF0FD00001B7511CE1FFFF300E86
:100AD8000001B45D510E0001B559030E0001B6596D
:100AE800D8B010D0FFFF00F0010E0001B427000EAF
:100AF800B523B623B7230001B7BFF4D70001B75118
:100B080001E1E4D7FFFF82A882AABBD0FFFF80CF14
:100B1800C0F00001C16B0001C2510001C05D0001BD
:100B2800C151800A206E0001C351800A2058D8B0F4
:100B38004BD08B908B928B848B960001C251000115
:100B4800C311D8A405D0000E0001C36F200EC26FD8
:100B5800FFFFFF0E0001C2250001C26FFF0E00015A
:100B6800C3210001C36FC2C08AFF010E0001B86F24
:100B7800000EB96F000EBA6F000EBB6F0001BBBF4D
:100B88000FD00001BB511CE1FFFF300E0001B85D22
:100B9800510E0001B959030E0001BA59D8B010D04E
:100BA800FFFF00F0010E0001B827000EB923BA2399
:100BB800BB230001BBBFF4D70001BB5101E1E4D75F
:100BC800FFFF82A882AA5DD0FFFF80CFC0F000019E
:100BD800C16B0001C2510001C05D0001C151800A12
:100BE800206E0001C351800A2058D8B04AD08B909B
:100BF8008B928B948B860001C2510001C311D8A43B
:100C080005D0000E0001C36F200EC26FFFFFFF0E5C
:100C18000001C2250001C26FFF0E0001C3210001BF
:100C2800C36FC2C08AFF010E0001BC6F000EBD6F0A
:100C3800000EBE6F000EBF6F0001BFBF0FD00001D6
:100C4800BF511CE1FFFF300E0001BC5D510E0001D9
:100C5800BD59030E0001BE59D8B010D0FFFF00F0F7
:100C6800010E0001BC27000EBD23BE23BF230001D7
:100C7800BFBFF4D70001BF5101E1E4D7FFFF82A84D
:100C88008250FFFF82A882AA5AEF00F083D6FFFFA6
:100C9800FACF01F0FBCF02F0E9CF03F0EACF04F07E
:100CA800E1CF05F0E2CF06F0D9CF07F0DACF08F0B0
:100CB800F3CF09F0F4CF0AF0F6CF0BF0F7CF0CF032
:100CC800F8CF0DF0F5CF0EF00EC0F5FF0DC0F8FF10
:100CD8000CC0F7FF0BC0F6FF0AC0F4FF09C0F3FF12
:100CE80008C0DAFF07C0D9FF06C0E2FF05C0E1FF70
:100CF80004C0EAFF03C0E9FF02C0FBFF01C0FAFF1E
:100D080021921100FFFFFFFFFFFF1F0E926EE00E02
:100D1800936EB00E946E000E896E000E8A6E000EF1
:100D28008B6E000E806E000E816E000E826EC150BA
:100D3800F00B0709C16E1200FFFF6A0EF66E0D0E6A
:100D4800F76E000EF86E0900F5CFC2F00900F5CF76
:100D5800C3F00001C16BC06B21902192000157EFD5
:060D680000F02000FFFF77
:020000040020DA
:08000000FFFFFFFFFFFFFFFF00
:020000040030CA
:0E000000FF220D0EFF0080FF0FC00FE00F402B
:00000001FF
