:020000040000FA
:04000000803119280A
:100008007E1480310B1D09280A28172803102000A8
:100018000C1C031403181128142820000C1416288B
:1000280020000C100B117E10090080311B287E1057
:1000380020008031322822008E018D018C012100A0
:100048000C1023008C018B170B17210097119712A6
:100058001708F839033897008B16080080313B20C1
:10006800803180311F2080313828803119282100C3
:0E0078001B08873938389B0003309B040800B2
:020000040001F9
:04000E00E4C9FFDC66
:00000001FF
