:020000040000FA
:04000000803108281B
:100008007E1480317E10090080310A28FD012030DD
:10001800840000308500133081317F2180317E10CB
:1000280020008031F62821008D120D128D110D113E
:100038008D100D106230F9006630890B2128F90BFC
:10004800212822008D1000308131152180310330A4
:100058008131152180318131852180312130F900AC
:100068007630890B3528F90B35280032003081317C
:10007800152180310330813115218031813185216D
:100088008031AA300032890B462800308131152191
:1000980080310330813115218031813185218031D2
:1000A8002130F9007630890B5728F90B5728003290
:1000B80000308131152180310230813115218031A4
:1000C800813185218031AA300032890B68280830B7
:1000D8008031D020803128308031D02080310630E6
:1000E8008031D02080310F308031D0208031813173
:1000F8005C21803181314D2180312000B20108001E
:1001080022008E018D018C01FF3021008D0023001B
:100118008D0121000C1423000C1424000C10210064
:100128008C1023008C1424008C1021008E172300BF
:100138008E1324008E1349303C00BD0021000E139D
:1001480023000E1324000E1304303D00A6008B1765
:100158000B17210011178B16290011088F39303819
:100168009100FC309105111191170330900510147E
:100178002100971197121708F839053897002300BE
:100188009F111E111E1200309C0019309B009D17F4
:100198001E139E161D160800F7007708F30004309A
:1001A800F336890BD4287308F4007408F50077082F
:1001B800F3007308F600750881311521803181310B
:1001C8008521803176088131152180318131852161
:1001D80080310730F3007D30890BF028F30BF028CD
:1001E80000000800813177218031803184208031FE
:1001F8008031172080316B30F8008130F90081316F
:10020800342180310D30FC00AF30FB00B630890B53
:100218000B29FB0B0B29FC0B0B290032FF28803123
:100228000828F10022008D120D128D110D11710890
:10023800F0007008F200721C2229232924298D1647
:10024800F21C2729282929290D16721D2C292D2948
:100258002E298D15F21D3129322933290D15080053
:1002680022008D1443297808840079088500000845
:100278008031D02081310130F8070030F93D78080D
:100288008400790885001200031D4B294C29372961
:10029800080022008D1002308031D02081311A30C0
:1002A800F800F830890B5629F80B56290032080057
:1002B80022008D1001308031D02081311A30F800B1
:1002C800F830890B6529F80B652900320800683475
:1002D8006F346C3461342034703465347234723461
:1002E8006F347334003421001B08873938389B0079
:1002F80003309B040800640080010131890B8029C8
:10030800003422000D140D100800203400342D3460
:020318000034AF
:020000040001F9
:04000E00E4C9FFDC66
:00000001FF
