:020000040000FA
:04000000803108281B
:100008007E1480317E10090080310A282030840057
:100018000030850014308131CD2180317E102000E0
:100028008031D02821008D120D128D110D118D10E7
:100038000D104E30F900EB30890B2028F90B2028E1
:10004800000022008D1000308131522180310330B0
:100058008131522180318131D32180311A30F90028
:10006800F830890B3528F90B3528003200308131FA
:100078005221803103308131522180318131D321A5
:100088008031E230890B462800320030813152211C
:10009800803103308131522180318131D321803147
:1000A8001A30F900F830890B5728F90B5728003215
:1000B800003081315221803102308131522180312A
:1000C8008131D3218031E230890B68280032083031
:1000D80081312C218031283081312C21803106302A
:1000E80081312C2180310F3081312C2180318131B7
:1000F800AA21803181319B2180312000B201080082
:1001080022008E018D018C01FF3021008D0023001B
:100118008D0121000C1423000C1424000C10210064
:100128008C1023008C1424008C1021008E172300BF
:100138008E1324008E1349303C00BD0021000E139D
:1001480023000E1324000E1304303D00A6008B1765
:100158000B17210011178B16290011088F39303819
:100168009100FC309105111191170330900510147E
:100178002100971197121708F839053897002300BE
:100188009F111E111E1200309C0019309B009D17F4
:100198001E139E161D1608008131C521803180313D
:1001A800842080318031162080318131AA2180312C
:1001B800C030F8008130F90081317121803101307F
:1001C80081318A218031FC01FD010000B930F00045
:1001D8008130F1008131052180310130FC07003088
:1001E800FD3D7D08803AFB0087307B02031DFE2819
:1001F800D1307C02031C01290229E928D928803141
:100208000828152970088400710885000008230053
:100218009A009E1C102911290D290130F007003081
:10022800F13D70088400710885001200031D1D2926
:100238001E2906290A3023009A009E1C24292529F4
:1002480021290D309A009E1C2A292B2927290800CC
:10025800F7007708F3000430F336890B3029730868
:10026800F4007408F5007708F3007308F6007508C1
:100278008131522181318131D32181317608813117
:10028800522181318131D32181310630F300303060
:10029800890B4C29F30B4C2900320800F10022008D
:1002A8008D120D128D110D117108F0007008F200F9
:1002B800721C5F29602961298D16F21C6429652941
:1002C80066290D16721D69296A296B298D15F21D7B
:1002D8006E296F2970290D15080022008D148029B8
:1002E8007808840079088500000881312C21813143
:1002F8000130F8070030F93D780884007908850056
:100308001200031D8829892974290800F900220090
:100318008D107908803E81312C2181311530F8000B
:10032800C630890B9529F80B952900320800220060
:100338008D10023081312C2181311530F800C63002
:10034800890BA429F80BA4290032080022008D107B
:10035800013081312C2181311530F800C630890BEC
:10036800B329F80BB32900320800683465346C34BB
:100378006C346F343A34003448344F344C3441349C
:10038800003421001B08873938389B0003309B0450
:100398000800640080010131890BCE290034220055
:0E03A8000D140D100800203400342D340034E4
:020000040001F9
:04000E00E4C9FFDC66
:00000001FF
